:02000002D0002C
:1040000000400D00E8A90D00000006000C000501AD
:084010000401D80700000000C4
:0440180034A30D00C0
:1040200009480A49884208B505D0094A824202D0A7
:10403000121A06F085F80748074A0021121A06F0FE
:104040008DF8014808BD00BF90E303204CA90D0086
:1040500004E4032004E40320F0E7032070B5074ED6
:10406000074C02F0D5FEA41BA4080025A54200D1F0
:1040700070BD56F8043B98470135F7E70CA90D00D1
:1040800034A90D0000F016BD08B500F049FEBDE8EA
:10409000084002F07FBE02F0ADB902F0ABB902F009
:1040A000B1B90078B0FA80F040097047012303707D
:1040B0007047000038B584690A4B036005467CB13F
:1040C0006368013B63605BB9236820469B6898473F
:1040D000A368013BA3601BB923682046DB689847AF
:1040E000284638BD48A60D0008B50368DB6A984726
:1040F000004808BDD2FEFFFF0368C9B29B6818479D
:1041000010B50446FFF7D6FF20461C2103F021FD21
:10411000204610BD30B5DFED227AB0EEC07AB4EEA5
:10412000677AF1EE10FA8BB005460C460DDCDFED38
:104130001D7AB4EEE70AF1EE10FA2DDCDFED1A7A03
:10414000B4EEE70AF1EE10FA26D410EE100A05F0EC
:1041500075F902460B4605A8144902F063F905A952
:1041600001A802F084FB611E07290FD8039BFF2BD7
:104170000FD805EB0110083001A902F0A9FBC824F3
:1041800001A802F029FB20460BB030BD6FF0C80437
:10419000F6E76FF06404F3E76FF06404F3E700BF41
:1041A000FFFF7F7F96D4685396D468D348A30D0051
:1041B0002DE9F043154687B020233349ADF8003090
:1041C000064602F054FBAC68DFF8C08001340027DB
:1041D000AB689F4216D23946284602F013FCA0F184
:1041E0002003DBB25F2B02D9013C0137F0E7A0F1DD
:1041F0002203DBB2192BF8D828FA03F3DA0748BFF9
:104200000234F2E7204602F0F5F80446002837D0E1
:104210000027DFF87880DFF878900770AB689F425E
:1042200020D23946284602F0EDFBA0F12003DBB294
:104230005F2B02460ED8A0F12203DBB2192B03D864
:1042400028FA03F3DB0707D48DF8002069462046DF
:1042500005F0B0FF0137E1E7494601A802F0E2F8B6
:1042600001A9F4E7214602A802F001FB02A93046A9
:1042700002F048FB02A802F0AFFA204602F0C2F8B2
:10428000304607B0BDE8F08352A40D0019020002C9
:104290004DA30D00F0B585B004460E4601F0B6FE04
:1042A00041F287370546206803681B69984740B983
:1042B00001F0ACFE401BB84203D8642002F028FD98
:1042C000F1E7206803681B69984738B314492068F0
:1042D00002F0C5FC20B96FF49775284605B0F0BD13
:1042E000206802F0EBFCC8280546F6D10D4920688D
:1042F00002F0B5FC0028EED00B49206802F0AFFCBC
:104300000028E8D02168684602F0DCFC69463046A7
:1043100002F0DEFA684602F05FFADEE7034DDCE702
:1043200054A30D0050A40D004FA40D00D0FEFFFFBC
:10433000F0B50546006850491E46036889B05F6ABB
:1043400014460023AA88B847002800F0928021462E
:1043500004A802F0CCFA4949684602F088FA694696
:1043600004A802F03AFB0146204602F0B1FA684682
:1043700002F032FA04A802F02FFA4149286802F04C
:104380008DFB30B92868FFF7AFFE0446204609B020
:10439000F0BD3C49286802F081FB0028F2D03A4980
:1043A000286802F07BFB0028ECD03849286802F02E
:1043B00075FB0028E6D03649286802F06FFB00281C
:1043C000E0D03449286802F069FB0028DAD08EB1C9
:1043D0003149286802F062FB0028D3D028683146B2
:1043E00002F05CFB0028CDD02A49286802F056FB79
:1043F0000028C7D02949286802F050FB0028C1D006
:104400002749286802F04AFB0028BBD0A168286829
:104410000A2202F056FB0028B4D02249286802F094
:104420003DFB0028AED02168286802F037FB002849
:10443000A8D01D4904A802F01AFA04A92846FFF7DB
:1044400029FFC828044607D028680368DB6A984714
:1044500004A802F0C1F999E704A802F0D5FA0646CB
:1044600028680368DB6A9847002E08BF6FF4C87499
:10447000EEE76FF4967489E75DA30D0070A30D005D
:104480007FA30D0097A30D00B2A30D00C6A30D00DE
:10449000D3A30D0050A40D00F6A30D000BA40D0036
:1044A0003DA40D004EA40D0052A40D002DE9F04FC7
:1044B0009FB004460E4602A8B849DFF8FC82DFF838
:1044C000FC92DFF8D8A20125174604F1080B02F090
:1044D000CEF92B46DBF80820002A61D0ABB902A93F
:1044E0001AA802F004FAAE4916A802F0C0F916A9FB
:1044F0001AA802F072FA014602A802F0E9F916A819
:1045000002F06AF91AA802F067F902A90AA802F0F3
:10451000EEF9414606A802F0AAF906A90AA802F097
:104520005CFA0A22019029460EA802F005FA019BC6
:104530000EA9184602F051FA4946019012A802F05D
:1045400096F9019B12A9184602F047FA59460190C4
:1045500016A802F0CCF916AA21461AA8FFF728FEE1
:10456000019B1AA9184602F038FA014602A802F087
:10457000AFF91AA802F030F916A802F02DF912A826
:1045800002F02AF90EA802F027F906A802F024F991
:104590000AA802F021F95146584602F0BBF900235F
:1045A0000135092D0BF1100B94D1D4ED227AF4EEE4
:1045B000677AF1EE10FA3ED6ABB902A91AA802F05A
:1045C00096F9774916A802F052F916A91AA802F02E
:1045D00004FA014602A802F07BF916A802F0FCF8E2
:1045E0001AA802F0F9F802A916A802F080F96D499C
:1045F00012A802F03CF912A916A802F0EEF994ED07
:10460000220A054606211AA802F0A9F91AA9284685
:1046100002F0E3F9014602A802F05AF91AA802F0E2
:10462000DBF812A802F0D8F816A802F0D5F85E4B15
:10463000C4F888300023D4ED237AF4EE677AF1EEE3
:1046400010FA3ED6ABB902A91AA802F050F95449A3
:1046500016A802F00CF916A91AA802F0BEF9014634
:1046600002A802F035F916A802F0B6F81AA802F06E
:10467000B3F802A916A802F03AF94C4912A802F0C0
:10468000F6F812A916A802F0A8F994ED230A054637
:1046900006211AA802F063F91AA9284602F09DF92A
:1046A000014602A802F014F91AA802F095F812A81F
:1046B00002F092F816A802F08FF83B4BC4F88C3049
:1046C0000023D4ED247AF4EE677AF1EE10FA3ED6A8
:1046D000ABB902A91AA802F00AF9314916A802F0EA
:1046E000C6F816A91AA802F078F9014602A802F045
:1046F000EFF816A802F070F81AA802F06DF802A9F7
:1047000016A802F0F4F82A4912A802F0B0F812A98B
:1047100016A802F062F994ED240A054606211AA8AB
:1047200002F01DF91AA9284602F057F9014602A81D
:1047300002F0CEF81AA802F04FF812A802F04CF8D6
:1047400016A802F049F8184BC4F890300023D4F8AA
:10475000A020002A5BD0ABB902A91AA802F0C7F8C2
:104760000F4916A802F083F816A91AA802F035F925
:10477000014602A802F0ACF816A802F02DF81AA81B
:1047800002F02AF802A912A802F0B1F809490EA80D
:1047900002F06DF80EA912A812E000BF52A40D009D
:1047A00053A40D005BA40D000000C07F60A40D00A9
:1047B00066A40D0071A40D0055A40D0064A40D00A5
:1047C00002F00BF904F198058046294616A802F07C
:1047D0008EF816AA21461AA8FFF7EAFC1AA9404645
:1047E00002F0FBF8014602A802F072F81AA801F0E4
:1047F000F3FF16A801F0F0FF0EA801F0EDFF12A8DC
:1048000001F0EAFF7C49284602F084F80023D4F83E
:10481000B020002A47D0ABB902A91AA802F067F865
:10482000764916A802F023F816A91AA802F0D5F8BE
:10483000014602A802F04CF816A801F0CDFF1AA814
:1048400001F0CAFF02A912A802F051F86C490EA8A3
:1048500002F00DF80EA912A802F0BFF804F1A805A5
:104860008046294616A802F042F816AA21461AA840
:10487000FFF79EFC1AA9404602F0AFF8014602A8D5
:1048800002F026F81AA801F0A7FF16A801F0A4FF6D
:104890000EA801F0A1FF12A801F09EFF564928467C
:1048A00002F038F80023D4F8C020002A47D0ABB972
:1048B00002A91AA802F01BF8504916A801F0D7FF68
:1048C00016A91AA802F089F8014602A802F000F819
:1048D00016A801F081FF1AA801F07EFF02A912A814
:1048E00002F005F847490EA801F0C1FF0EA912A871
:1048F00002F073F804F1B8058046294616A801F0C5
:10490000F6FF16AA21461AA8FFF752FC1AA940463C
:1049100002F063F8014602A801F0DAFF1AA801F0DC
:104920005BFF16A801F058FF0EA801F055FF12A872
:1049300001F052FF3049284601F0ECFF0023D4F883
:10494000D020002A53D0ABB902A91AA801F0CFFF9A
:104950002A4916A801F08BFF16A91AA802F03DF803
:10496000014602A801F0B4FF16A801F035FF1AA80D
:1049700001F032FF02A916A801F0B9FF224912A8DE
:1049800001F075FF12A916A802F027F804F1C80873
:10499000054641461AA801F0AAFF1AA9284602F0C6
:1049A0001CF8014602A801F093FF1AA801F014FFB9
:1049B00012A801F011FF16A801F00EFF0E494046A3
:1049C00001F0A8FF02A91AA801F091FF20463B467A
:1049D0001AAA3146FFF7ACFC04461AA801F0FCFE07
:1049E00002A801F0F9FE20461FB0BDE8F08F002BB1
:1049F000E8D06FF0D104F3E752A40D0053A40D00EA
:104A000079A40D0082A40D0089A40D0008B503F05F
:104A100073F802F0F9FB03F06FF8682102F02AFC4A
:104A200003F06AF86B21FFF767FB03F065F80021DC
:104A3000FFF762FB03F060F8BDE80840012102F0D7
:104A40001CBC0000022810B5194B21D0032824D02B
:104A5000012827D14FF08C421A60082403F04CF84B
:104A600002F0D2FB03F048F8682102F003FC03F0E7
:104A700043F81C21FFF740FB03F03EF82146FFF707
:104A80003BFB03F039F8BDE81040012102F0F5BB13
:104A90004FF08B421A601024E0E74FF08A421A6010
:104AA0001824DBE74FF08D421A600024D6E700BFE0
:104AB00060E50320F8B502F0C1FA4FF4165102F098
:104AC000B1FAFFF7A3FF0320FFF7BCFF01210B2082
:104AD00002F0BCFF164C1748174F00F0EEFE174BC4
:104AE000236050236360002504F1080670193946DD
:104AF000103501F00FFF802DF8D1114B0E491148F0
:104B0000C4F88830C4F88C30C4F8903001F002FF4B
:104B100009490D4801F0FEFE07490C4801F0FAFE74
:104B200005490B4801F0F6FEC823C4F89430F8BDDF
:104B300078E5032010E4032052A40D0054E4032080
:104B40000000C07F10E6032020E6032030E60320AB
:104B500040E603202DE9F0432DED028B83B002F0F7
:104B6000CBFF682102F086FB02F0C6FF3B21FFF776
:104B7000C3FA02F0C1FF002102F07FFB02F0BCFF8C
:104B800006226821012302F05CFB02F0B5FF0368F6
:104B90005B699847044602F0AFFF03685B6998477A
:104BA00040EA042006B202F0A7FF03685B69984759
:104BB000044602F0A1FF03685B69984740EA0420BD
:104BC00005B202F099FF03685B699847804602F0DE
:104BD00093FF03685B699847364B07EE906A93ED45
:104BE000008AF8EEE77A044687EE887A44EA0824D9
:104BF00024B2F1EE477A17EE900A04F01FFC07EE9C
:104C0000905AF8EEE77A024687EE887A0B46CDE9AD
:104C10000023F1EE477A17EE900A04F00FFC07EE3E
:104C2000904AF8EEE77A064687EE887A0F46F1EE6C
:104C3000477A17EE900A04F001FCDDE900230446F0
:104C40000D461046194604F051FC3246804689460E
:104C50003B463046394604F049FC02460B46404686
:104C6000494604F08DFA224606460F462B4620465A
:104C7000294604F03BFC02460B463046394604F018
:104C80007FFA41EC100B03F031FA51EC100B04F0F9
:104C9000FDFE07EE100AF0EE007AB4EEE77AF1EED0
:104CA00010FACCBF0120002003B0BDEC028BBDE8A0
:104CB000F08300BF60E5032010B5012104460B20FE
:104CC00002F0D5FE204602F023F80B20002102F06E
:104CD000CEFE2046BDE8104002F01AB808B5C82044
:104CE000FFF7EAFFC820FFF7E7FFC820FFF7E4FF60
:104CF0004FF4C87002F00CF84FF41670FFF7DCFFA9
:104D00004FF41670FFF7D8FF4FF41670FFF7D4FF7B
:104D1000BDE808404FF4C87001F0FABF0000000081
:104D20002DE9F84FFFF716FF614B1870614B1A78A9
:104D30008242614A05D018B1117881F001011170E9
:104D400018701378002B00F0A780FFF7C7FF01F061
:104D50005DF95A4D286002F0EFF903681B69984726
:104D6000002840F3998002F0E7F90368544C5B692E
:104D70009847C1B2204601F0B5F80028EBD023785F
:104D8000002BE8D04F4E2B6832689B1A43F69822CE
:104D90009342E0DD02F052F94B49DFF854A1DFF80D
:104DA0005491DFF85481DFF854B1484F01F076FE9A
:104DB00047489FED480A00F0DBFA10EE100A04F0B5
:104DC0003DFB37A3D3E9002304F090FB04F05EFE23
:104DD000CAF800003E4800F0EFF99FED3F7A3C48EA
:104DE000C0EE077AC9ED007A00F0B8F910EE100AAB
:104DF00004F024FB2CA3D3E9002304F077FB374B0A
:104E0000002204F0BDF904F041FEC8F8000030486B
:104E100000F04EFB20468BED000A00F0A1FE51ECA5
:104E2000100B04F033FE3860204600F0BDFE51EC5C
:104E3000100B04F02BFE2A4C9AED000A2060012191
:104E40002848FFF767F999ED000A26480221FFF785
:104E500061F998ED000A23480321FFF75BF99BED08
:104E6000000A20480421FFF755F997ED000A1D4874
:104E70000521FFF74FF994ED000A1A480621FFF7C4
:104E800049F9194B17481A68184B1968FFF70EFBB8
:104E900001F0BCF830605EE7BDE8F88FAFF300804A
:104EA0003D0AD7A3703D0A40CDCCCCCCCCCCFC3F46
:104EB00008E4032009E4032064E5032070E40320F0
:104EC00074E403205CE5032095A40D0050E5032065
:104ED00010E4032000507D440000C8420000404020
:104EE00054E5032078E5032094E3032090E30320B6
:104EF0000CE4032058E5032068E503204CE503207B
:104F000010B50848084C00F057F8084800F06EFD4E
:104F1000204602F063FC2046054A0649BDE81040E1
:104F200002F012BE10E4032054E4032074E40320D2
:104F300004E40320B5400D00704710B5102104466D
:104F400002F007FE204610BD0EB403B503AB0021EE
:104F500053F8042B019301F0D2FD02B05DF804EB8D
:104F600003B0704773B5044608462279A36832B18E
:104F7000A3B90B4902B0BDE8704001F08FBD094AEA
:104F8000267B094D0949647B012E18BF2946CDE9CE
:104F900000140749FFF7D8FF02B070BD054AEFE7DC
:104FA000B9A40D0052A40D00B5A40D00B1A40D00CC
:104FB000CFA40D00A8A40D004FF0FF33036170478C
:104FC00013B50B4C2178BFF35B8F11F001010BD1AE
:104FD00020460191FFF765F8019928B1054801F0D5
:104FE00085FA2046FFF762F8024802B010BD00BF04
:104FF0006CE5032070E503202DE9F04190F91330B2
:10500000013305460F4606D1FFF7DAFF3946BDE802
:10501000F04101F00DBB002407264FF0010895F97F
:105020001300002180B202F022FD95F9110008FA68
:1050300006F1394080B202F01AFD95F91300012102
:1050400080B202F014FD95F91200640080B2E4B25F
:1050500002F026FD08B144F00104013EDFD22046F3
:10506000BDE8F08108B5FFF7ABFFBDE8084001F0EF
:1050700058BA07B50190FFF7A3FF019903B05DF897
:1050800004EB01F067BA000030B590F9103001333D
:1050900085B004460D4623D10179006802F0E6F898
:1050A0002068036829469B689847206802F0E9F861
:1050B00021792068032202F0D6F8206803685B6932
:1050C00098470502206803685B69984728430502F2
:1050D000206803685B6998470543284605B030BDE2
:1050E00090F9133001330CD11A4B009300238DF843
:1050F0000430194B029368460123ADF80C30FFF7DA
:10510000B8FF94F91000002180B202F0B0FC45F025
:1051100080012046FFF770FF00212046FFF76CFF5B
:10512000002105022046FFF767FF28430502002102
:105130002046FFF761FF054394F91000012180B27A
:1051400002F095FC94F913300133C6D1FFF78AFFC2
:10515000C3E700BFF4A40D0020A1070010B5FA2199
:105160000446FFF791FFB0F5000F1ED0A18A9FED16
:10517000107A4B00C1EB2022C3EBE011B4F91630DA
:1051800052435943B4F91830121353439B1303EBA2
:10519000E123E36003EB830380331B1207EE903AB5
:1051A000F8EEE77A87EE870A10BD9FED020AFBE76B
:1051B0000000C8420000C07F2DE9F8430446FFF715
:1051C000CDFFF7212046FFF75FFFB0F5000F054642
:1051D00000F0BF80E068B4F91C60B0F5FA334FEA24
:1051E000E07141F1FF32A3FB038903FB02F109EBFC
:1051F0004109F71706FB02F103FB0711A6FB036742
:105200000F44390341EA16513003B4F91E60F71711
:1052100006FB09FC08FB07CCA6FB086767444FEABE
:10522000162C4CEA076C668B4FEA272E1CEB00000D
:105230004EEB010E00304EF5004EA0FB060106FBC2
:105240000E114E10CF1756EA070100F08580B4F911
:10525000240000FB09FCC11708FB01CCA0FB0801DE
:10526000B4F922804FEAE87908FB02F203FB092235
:10527000A8FB0389914461444FEA48424FEA494CF4
:105280002D111218C5F580154CEAD83CB4F92080D0
:105290004CEB010C0023E9179B184FEAC17E4FEA43
:1052A000C5704FEAC80141EB0C0C4EEA550EC01A0E
:1052B00040F635436EEB0C0EA0FB030103FB0E1111
:1052C00032463B4604F040FDB4F92A204D13460B0C
:1052D00046EAC14602FB05F7D31706FB0377A2FB9C
:1052E00006233B44554306FB0355A2FB06232B44F0
:1052F000550E45EAC315B4F92820B4F926402D18F7
:105300004FEA636641EB0606D317514300FB0311D6
:10531000A2FB00230B44D10C41EA43316D184FEA44
:10532000E34046EB00032A0AE51742EA036219123A
:1053300020012B0143EA1473801843EB010104F0B0
:10534000C5FC9FED070A07EE900A27EE800ABDE82C
:10535000F8839FED040AFAE79FED030AF7E700BF21
:105360000000803B0000C07F000000000000000043
:1053700008B52DED028BB0EE408AFFF71DFF9FEDC3
:10538000167AC0EE077AC7EE887A17EE900A04F014
:1053900055F89FED0D1B41EC100B02F0F1FC0F498D
:1053A00053EC102B002003F0E9FE09A3D3E90023FE
:1053B00004F09CF804F06AFBBDEC028B00EE100ACE
:1053C00008BD00BFAFF30080EBE2361AC05BC83FF8
:1053D0000000000040A5E5400000C8420000F03F8A
:1053E00030B590F91030013385B004460D461FD119
:1053F0000179006801F03AFF2068036829469B683C
:105400009847206801F03DFF21792068022201F0D1
:105410002AFF206803685B6998470546206803688F
:105420005B69984740EA052085B2284605B030BD43
:1054300090F9133001330CD1184B009300238DF8F1
:105440000430174B029368460123ADF80C30FFF788
:1054500010FE94F91000002180B202F008FB45F024
:1054600080012046FFF7C8FD00212046FFF7C4FD5C
:10547000002105462046FFF7BFFD40EA052085B222
:1054800094F91000012180B202F0F1FA94F913307E
:105490000133CAD1FFF7E6FDC7E700BFF4A40D0052
:1054A00020A1070008B5FFF79BFF40BA80B208BDF6
:1054B00038B50446FFF752FEFD212046FFF790FF66
:1054C000B0F5004F38D0B4F93250E268B4F9343056
:1054D0002D05A2F59632C5EB803002FB130303F5D0
:1054E0008043D91394F830305343DB1203F5004066
:1054F00094F9363053439B1243439B1203F5001239
:10550000B4F92E30534303F500539B134B43DA1386
:1055100094F82C105243D2114A43A3EB221323EAEE
:10552000E373B3F1C85FA8BF4FF0C8531B1300EE7D
:10553000103ABAEECB0A38BD9FED010AFBE700BF77
:105540000000C07F30B590F91030013385B00446BB
:105550000D4618D10179006801F088FE20680368C3
:1055600029469B689847206801F08BFE21792068C6
:10557000012201F078FE206803685B699847C5B294
:10558000284605B030BD90F9133001330CD1154BCE
:10559000009300238DF80430134B029368460123D7
:1055A000ADF80C30FFF765FD94F91000002180B2D2
:1055B00002F05DFA45F080012046FFF71DFD002155
:1055C0002046FFF719FD054694F91000012180B22D
:1055D00002F04DFA94F913300133D1D1FFF742FDB7
:1055E000CEE700BFF4A40D0020A1070008B5F32109
:1055F000FFF7A8FF00F0010008BD38B58821044678
:10560000FFF750FF8A21A0822046FFF74BFF8C2135
:10561000E0822046FFF746FF8E2120832046FFF7D9
:1056200041FF902160832046FFF73CFF9221A08339
:105630002046FFF737FF9421E0832046FFF732FF33
:10564000962120842046FFF72DFF98216084204674
:10565000FFF728FF9A21A0842046FFF723FF9C2113
:10566000E0842046FFF71EFF9E2120852046FFF79D
:1056700019FFA12160852046FFF764FFE12184F82E
:105680002C002046FFF70EFFE321E0852046FFF7C0
:1056900059FFE42184F830002046FFF753FFE5214D
:1056A00005462046FFF74EFF00F00F0343EA0510C2
:1056B0006086E6212046FFF745FFE52105462046A6
:1056C000FFF740FF031143EA0510A086E7212046BB
:1056D000FFF738FF84F8360038BD00007FB590F939
:1056E0001030013304460E46154612D10179006888
:1056F00001F0BCFD2068036831469B68984720682C
:10570000036829469B689847206801F0BAFD04B0F9
:1057100070BD90F9133001330CD1144B009300236A
:105720008DF80430124B029368460123ADF80C301B
:10573000FFF79FFC94F91000002180B202F097F966
:1057400006F07F012046FFF757FC29462046FFF769
:1057500053FC94F91000012180B202F088F994F909
:1057600013300133D3D1FFF77DFCD0E7F4A40D0053
:1057700020A10700F8B5DB0002F0070203F03803B0
:10578000134343EA81139DF8186080F83C3090F889
:1057900040309DF81C509DF8207066F3471380F848
:1057A0004030ED0090F8383007F0070705F0380575
:1057B00023F03F033D4304461D4380F8385006F074
:1057C0000702F221FFF78AFF94F83820C2F3C203E0
:1057D00002F007019B0043EA411343EAD21220463C
:1057E000F521FFF77BFF94F83C20C2F3C20302F0DF
:1057F00007019B0043EA411343EA92122046F42139
:10580000BDE8F840FFF76ABF30B5044690F91000D4
:10581000421C85B019D1206801F0F6FCD021204649
:10582000FFF790FE6028A06045D12046B622E02117
:10583000FFF754FF4FF4967001F06AFA2046FFF725
:10584000D5FE054628B36420F6E7012180B202F0B8
:105850000EF994F91000012180B202F0F7F894F9E2
:105860001300431C04D1FFF7ABFB00F049FED5E762
:10587000012180B202F0EAF894F91100012180B20E
:1058800002F0E4F894F91200002180B202F0DEF890
:10589000C4E72046FFF7B1FE052300931A46032113
:1058A0002046CDE90155FFF765FF642001F030FA8D
:1058B000012005B030BD0020FBE7772310B5037150
:1058C000044602F019F920602046FFF79DFF30B929
:1058D000762323712046BDE81040FFF795BF10BD29
:1058E00070B50446C83000F077FF04F1B80000F04E
:1058F00073FF04F1A80000F06FFF04F1980000F0BE
:105900006BFF04F1880504F10806B54204D0103D90
:10591000284600F061FFF8E7204670BD2DE9F84FFA
:1059200000225023C0E9002300F10805244F04465B
:1059300000F1880A2E4630463946103600F097FFAF
:105940005645F8D104F198091D49DFF874B048466E
:1059500004F1A80800F08BFF04F1B807184940468D
:1059600000F085FF04F1C8061549384600F07FFFB6
:105970001349304600F07BFF28465946103500F0A9
:10598000C9FF5545F8D10F4BC4F88830C4F88C30A6
:10599000C4F890300A49484600F0BCFF0849404628
:1059A00000F0B8FF0649384600F0B4FF044930461D
:1059B00000F0B0FFC823C4F894302046BDE8F88F4B
:1059C00052A40D000000C07F10B5054C2046FFF723
:1059D000A5FF2046034A0449BDE8104002F0B4B8D0
:1059E00078E5032004E40320E1580D0000220221A1
:1059F000C0E93022028082808260027302824261AA
:105A000002768283026280F824200285C26280F8D6
:105A100030200287C263A0F84820C264A0F8582052
:105A20000266A0F868200267A0F87820C0F88020FD
:105A3000A0F88820C0F89020A0F89820C0F8A020F6
:105A400080F8B910A0F8BA2080F8BC20C0E9322252
:105A5000C0E93422A0F8A82080F8AA207047A1F15C
:105A60004103052B02D8A1F137007047A1F1610372
:105A7000052B94BFA1F15700A1F13000704738B554
:105A8000057804462D2D08BF0134204604F046FB5E
:105A900064235843224614F8013BA3F1300109293D
:105AA000F8D92E2B0BD15378303B092B07D80A217C
:105AB00001FB03009378303B092B98BFC0182D2DB4
:105AC00008BF404238BD000038B50D46044604F01A
:105AD00025FB6422134BB0FBF2F102FB11004343A0
:105AE000298020460278A2F13004092C014600F1F9
:105AF0000100F7D92E2A0BD10A480A2411F8012FE8
:105B0000303A092A04D8B0FBF4F000FB0233F5E781
:105B100003EB830301330322B3FBF2F36B60002337
:105B20002B7238BD8096980010B50346044653F892
:105B30001C2F42605A6882601B7A0373034653F835
:105B4000282F02615A6842611B7A037600F05EFAE0
:105B500040F201136063238010BD000000000000CC
:105B6000D0B5002304464370806803F045FC0CA3C5
:105B7000D3E9002303F0E4FD0646A0880F4603F0B6
:105B80004BFC0B4602463946304603F0F9FA237BBC
:105B900013B101F10043194641EC100BD0BD00BF19
:105BA0000000000065CDCD41D0B500230446437010
:105BB000406903F021FC0CA3D3E9002303F0C0FDEE
:105BC0000646208A0F4603F027FC0B46024639465C
:105BD000304603F0D5FA237E13B101F10043194694
:105BE00041EC100BD0BD00BF0000000065CDCD41E1
:105BF00010B583684360044600F008FA40F20113D0
:105C0000E060238010BD10B583684360044600F057
:105C1000FDF940F20113E060238010BD10B5044689
:105C20000846FFF72CFFA06010BD10B504460846DB
:105C300004F074FAA06010BD10B5C3688360044618
:105C400000F0E4F940F201136060238010BD10B54C
:105C500004460846FFF713FFE06010BD10B5C368A7
:105C60008360044600F0D2F940F2011360602380A3
:105C700010BD10B50446084604F050FAE06010BDAF
:105C800010B501460446103004F0ADFA00F0BEF93C
:105C900040F201132062A38410BD102204F0B3BAB5
:105CA000F8B590F8A9500446002D64D090F8AA10D9
:105CB000FFF7D5FE94F8AB1002462046FFF7CFFE63
:105CC00094F8A83000EB0210C0B283424BD1D4F854
:105CD000D4300133C4F8D43094F8BC3023B1D4F8B4
:105CE000CC300133C4F8CC3094F8B93033B3012B45
:105CF00015D104F13800FFF77BFF04F14800FFF7EE
:105D000082FF94F8BC3053B12046FFF70DFF04F139
:105D10005800FFF791FF04F16800FFF78DFFD4F8FA
:105D2000C46036B3D4F8C430B06A996A04F051FA4A
:105D3000F8B93046FFF7A4FF366BF2E704F14800EC
:105D4000FFF761FF94F8BC3033B12046FFF7ECFE5B
:105D500004F17800FFF770FF04F18800FFF77EFF81
:105D600004F19800D9E7D4F8D0300133C4F8D0302A
:105D700000252846F8BD90F8BA2022BB00F1AA07FA
:105D80005649384604F025FA18B9012384F8B93089
:105D900006E05349384604F01CFA90B984F8B9502B
:105DA000D4F8C030C4F8C430D4F8C460002EE0D0B9
:105DB000B06A394604F00DFA002880F28880336B0F
:105DC000F0E70223E2E790F8B910022923D090F817
:105DD000AA3003B342EA4112013A282A1BD8DFE86D
:105DE00002F0153B42494C63686E721A1A1A1A1A6D
:105DF0001A1A1A1A1A1A1A1A1A1A1A1A1A1A1A1A03
:105E00001A1A15343B42494C53595D0000F1AA015E
:105E10004830FFF703FFD4F8C46004F1AA07002E4E
:105E2000A7D0D4F8C430B06A996A04F0D2F9002837
:105E30009FD1F26A94F8BA309A429ADC03D139467B
:105E40003046FFF72AFF366BE9E7A3F141004342F2
:105E5000434184F8BC30DEE700F11C0104F1AA00E4
:105E6000FFF732FED7E7A3F153014B424B4180F8D5
:105E70002430D0E700F12801F0E7A3F157025342A4
:105E8000534180F83030C6E700F1AA015830FFF7DF
:105E9000DEFEC0E700F1AA016830F8E700F1AA01D0
:105EA0003830FFF7C2FEB6E7302B94BF0023012342
:105EB000CFE700F1AA018830FFF7DBFEABE700F186
:105EC000AA019830E3E700F1AA017830DFE73FF458
:105ED00050AF0023C4F8C4304BE700BF00A50D004D
:105EE00006A50D0038B5D0F8C830242903F1010308
:105EF00004460D46C0F8C8303AD090F8BB3014D8EC
:105F00000A291CD00D291AD00D2B9FBF5A1C1B1912
:105F100084F8BB2083F8AA5094F8A90098BB94F8A1
:105F2000A8104D4084F8A85021E02A2907D02C2938
:105F3000EAD190F8A82082F02C0280F8A8200E2B3D
:105F40004FF0000005D8234483F8AA002046FFF74D
:105F5000A7FE94F8BA30013384F8BA30002384F8ED
:105F6000BB30A5F12A035D425D4184F8A95038BDDC
:105F700000200223A4F8A80084F8B930A4F8BA00DD
:105F800084F8BC00F3E70020F1E7000008B5024BFD
:105F90001B689B68019308BD6802030008B5024BAB
:105FA0001B68DB68019308BD6802030008B5024B5B
:105FB0001B689B68019308BD2C02030008B5024BC7
:105FC0001B68DB68019308BD2C02030008B5024B77
:105FD0001B681B69019308BD2C02030008B5024B26
:105FE0001B685B69019308BD2C02030008B5024BD6
:105FF0001B685B69019308BD6C02030008B5024B86
:106000001B685B68019308BD1802030008B5024BCA
:106010001B685B69019308BD1802030008B5024BB9
:106020001B685B6C019308BD4802030008B5024B76
:106030001B689B6C019308BD4802030008B5024B26
:106040001B685B69019308BD6402030008B5024B3D
:106050001B681B6A019308BD6402030008B5024B6C
:106060001B689B6A019308BD6402030008B5024BDC
:106070001B681B68019308BD3C02030008B5024B76
:106080001B68DB68019308BD3C02030008B5024BA6
:106090001B681B69019308BD3C02030008B5024B55
:1060A0001B685B69019308BD3C02030008B5024B05
:1060B0001B689B69019308BD3C02030008B5024BB5
:1060C0001B68DB69019308BD3C02030008B5024B65
:1060D0001B681B6A019308BD3C02030008B5024B14
:1060E0001B689B6A019308BD3C02030008B5024B84
:1060F0001B68DB68019308BD2802030008B5024B4A
:106100001B689B69019308BD2802030008B5024B78
:106110001B68DB69019308BD2802030008B5024B28
:106120001B681B6A019308BD2802030008B5024BD7
:106130001B685B6A019308BD2802030008B5024B87
:106140001B689B6A019308BD2802030008B5024B37
:106150001B68DB6A019308BD2802030008B5024BE7
:106160001B681B6B019308BD2802030008B5024B96
:106170001B685B6B019308BD2802030008B5024B46
:106180001B681B6C019308BD2802030008B5024B75
:106190001B681B6D019308BD2802030008B5024B64
:1061A0001B689B69019308BD3802030008B5024BC8
:1061B0001B68DB69019308BD3802030008B5024B78
:1061C0001B681B6A019308BD3802030008B5024B27
:1061D0001B689B6A019308BD3802030008B5024B97
:1061E0001B681B6B019308BD3802030008B5024B06
:1061F0001B689B6B019308BD3802030008B5024B76
:106200001B681B68019308BD3002030008B5024BF0
:106210001B685B69019308BD3002030008B5024B9F
:106220001B68DB69019308BD3002030008B5024B0F
:106230001B681B6A019308BD3002030008B5024BBE
:106240001B685B6A019308BD3002030008B5024B6E
:106250001B68DB6B019308BD3002030008B5024BDD
:106260001B681B6C019308BD3002030008B5024B8C
:106270001B685B6C019308BD3002030008B5024B3C
:106280001B681B68019308BD4C02030008B5024B54
:106290001B685B68019308BD4C02030008B5024B04
:1062A0001B681B69019308BD4C02030008B5024B33
:1062B0001B685B69019308BD4C02030008B5024BE3
:1062C0001B689B69019308BD4C02030008B5024B93
:1062D0001B68DB69019308BD4C02030008B5024B43
:1062E0001B681B6A019308BD4C02030008B5024BF2
:1062F0001B681B6D019308BD6002030008B5024BCB
:106300001B685B68019308BD2002030008B5024BBF
:106310001B685B69019308BD2002030008B5034BAD
:106320001B68D3F88830019308BD000020020300E9
:1063300008B5034B1B68D3F89430019308BD0000E7
:106340002002030008B5024B1B685B68019308BD7F
:106350004002030008B5024B1B689B68019308BD0F
:106360004002030008B5024B1B68DB68019308BDBF
:106370004002030008B5024B1B681B69019308BD6E
:106380004002030008B5024B1B685B69019308BD1E
:106390004002030008B5024B1B689B69019308BDCE
:1063A0004002030008B5024B1B68DB69019308BD7E
:1063B0004002030008B5024B1B681B6A019308BD2D
:1063C0004002030008B5024B1B681B6B019308BD1C
:1063D0004002030008B5024B1B685B6B019308BDCC
:1063E0004002030008B5024B1B68DB6B019308BD3C
:1063F0004402030008B5024B1B681B68019308BDEB
:106400001C02030008B5024B1B685B68019308BDC2
:106410001C02030008B5024B1B689B68019308BD72
:106420001C02030008B5024B1B68DB68019308BD22
:106430001C02030008B5024B1B685B6A019308BD90
:106440001C02030008B5024B1B68DB6B019308BDFF
:106450001C02030008B5024B1B685B6C019308BD6E
:106460001C020300002240681146FFF7A3BF002270
:1064700040681146FFF7AEBF40680022FFF7A2BF99
:106480004068002281F00101FFF78CBF00234068C3
:106490001A461946FFF77EBF002340681A46194680
:1064A000FFF770BF002240681146FFF763BF00226C
:1064B00040681146FFF74EBF406800220221FFF7F7
:1064C00051BF002340681A46FFF73CBF024B03222E
:1064D0005A60024A1A60704750E6032014A50D0066
:1064E0000021FFF7BBBE0021FFF7C0BE10B5044678
:1064F00008462170FFF792FE00236360204610BD1E
:1065000010B504460078FFF7EBFF48B920784FF646
:10651000FF71FFF773FE2078BDE81040FFF7E3BF7F
:1065200010BD0078FFF7DFBF400830B518600024C9
:1065300018688842E5B206D90134082C02D0400818
:106540001860F5E70725024B5B5D137030BD00BF97
:1065500040A50D002DE9F04306468FB000780D46AA
:10656000FFF7BEFF00281BDB34781422002109A8A6
:1065700003F0F4FD0B23002209A92046ADF82430D6
:10658000FFF75CFE9DF82D3013B19DF82C4054B1FF
:106590000027B946B84601242B795CB1C3B100206D
:1065A0000FB0BDE8F083DDF830809DF834909DF8A1
:1065B0003570F1E7002B35D1AB68434508D18DF834
:1065C00020908DF82170BDF82020AB899A42E6D04A
:1065D0000023A9688DF80F300A9804AB0DF10F0263
:1065E000FFF7A2FF297984B989B9AB6843450ED377
:1065F0008DF820908DF82170BDF82020AB899A424B
:1066000005D1049B434502D1C9E70029F9D10023F4
:1066100001936B7B00939DF80F202B7B3078FFF765
:1066200015FEBCE7CDE90044234622460121F5E7EB
:1066300008B50078FFF7EAFDC0B208BD10B5044602
:10664000006818B1FFF7DEFE0023236010BD10B50F
:106650000446FFF7F3FF204610BD000010B5094BBC
:10666000094C022200201A60084B2060A080A07113
:10667000A360FFF743FE2046054A0649BDE81040E7
:1066800001F062BA64E6032058E603200000FFFF31
:1066900004E403204F660D0010B5044603F0ABFD83
:1066A000013823182046834206D90278197800F869
:1066B000011B03F80129F6E710BD70B50C46911EC9
:1066C0002229054622D820466DB1B5FBF2F602FB21
:1066D0001655E9B2092D94BF30315731C9B200F8CF
:1066E000011B3546F0E7024623443021934202D98C
:1066F00002F8011BFAE71A1A834238BF002200236E
:1067000083542046FFF7C8FF204670BD0020FCE7F9
:1067100008B50123FFF7D1FF08BD00002DE9F047C0
:1067200057EC106B80460C4610EE100A0022002336
:10673000394603F04DF928B107F100431F462D23D8
:1067400004F8013B00234FF001090A22D9B2884521
:1067500003D902FB09F90133F8E7484602F05CFE71
:1067600032463B4602F0C2FE06460F4603F054FB9B
:1067700005468A4602F084FE02460B4630463946FC
:1067800002F0FCFC134B002203F036F910B1013586
:106790004AF1000A4A462846D317514603F024FB23
:1067A0000123154621460A22FFF787FFB8F1000FA3
:1067B0000DD0204603F01FFD2E23211823540A225A
:1067C000434628460131BDE8F047FFF776BFBDE8F4
:1067D000F08700BF0000E03F10B504460068FFF7F7
:1067E00011FE204610BD10B50446006808B1FFF741
:1067F00009FE0023C4E90133236010BD38B5044607
:106800000D4600680131FFF705FE10B1C4E900052F
:10681000012038BD10B50368044623B143688B429C
:1068200001D3012010BD2046FFF7E8FF0028F9D072
:10683000A368002BF5D122681370F2E737B50D4637
:10684000114601920446FFF7E5FF019A28B9204658
:10685000FFF7C9FF204603B030BDA260294620687B
:1068600003F06EFC2268A3680021D154F2E70023F4
:1068700013B5C0E9003304468360037341B1084691
:10688000019103F0B8FC019902462046FFF7D6FFBC
:10689000204602B010BD38B5054600680C4668B108
:1068A0006A688B689A4207D3096803F09CFCA36866
:1068B000AB600023A36038BDFFF7A4FD23682B6005
:1068C00063686B60A368AB600023C4E90033F1E741
:1068D000884210B5044605D00B682BB18A6819466A
:1068E000FFF7ACFF204610BDFFF77DFFFAE710B5BC
:1068F00000230446C0E9003383600373FFF7E8FF19
:10690000204610BD884210B5044601D0FFF7C3FFF2
:10691000204610BD13B5044659B10846019103F055
:106920006AFC019902462046FFF788FF204602B024
:1069300010BDFFF758FFF9E710B504468AB00023F1
:10694000C4E90033A3602373084601A9FFF7E0FE02
:1069500001A92046FFF7DEFF20460AB010BD30B582
:10696000044600238BB0C4E90033A360237310EE08
:10697000100ACDB202F062FD41EC100B01A92846CD
:10698000FFF7CCFE01A92046FFF7C4FF20460BB05D
:1069900030BD70B505460E4609B9002070BD6AB11C
:1069A000846814442146FFF735FF0028F5D0286895
:1069B000AB683146184403F016FCAC600120EDE7EB
:1069C00007B500238DF80410012201A98DF80530C8
:1069D000FFF7DFFF03B05DF804FB10B58A680968B4
:1069E0000446FFF7D6FF10B92046FFF7FCFE20460D
:1069F00010BD83688B4203D9006810B1405C7047BA
:106A000000207047FFF7F5BF006808B103F086BBB0
:106A1000704710B50446006808B1FFF707FB204631
:106A200010BD000010B5064C002320462360FFF780
:106A3000F5FA2046034A0449BDE8104001F084B845
:106A400068E6032004E40320136A0D00F8B5064647
:106A50000D468F180024BD420CD0336815F8011B79
:106A60009B6830469847031E01DB1C44F3E7002C6B
:106A700008BF1C462046F8BD13B50446084659B168
:106A8000019103F0B8FB23680199DB6802462046B8
:106A900002B0BDE81040184702B010BD08B5FFF7BE
:106AA000EBFF08BD03689B68184738B50D21054604
:106AB000FFF7F8FF0A2104462846FFF7F3FF2044BA
:106AC00038BD30B58BB000238DF82430012A98BF33
:106AD0000A2209AC0D46B1FBF2F101FB125303F09F
:106AE000FF03092B94BF30333733DBB2AA4204F8DB
:106AF000013DEFD92146FFF7BFFF0BB030BD2DE9B7
:106B0000F04186B000AF05460E46381D14211446EC
:106B10003B60FFF78FFC13280ED8391D2846FFF77E
:106B2000ABFF04461EB12846FFF7BFFF04442046D2
:106B30001837BD46BDE8F08100F1080323F00703D4
:106B4000E846ADEB030D2246411C3B686846FFF763
:106B500071FC69462846FFF78FFF0446C546E1E70A
:106B600010B50446FFF752FAE060236820465B69DF
:106B70009847002808DAFFF749FAE368C01AA368C3
:106B80009842F2D34FF0FF3010BD10B50446FFF726
:106B90003DFAE060236820469B699847002808DAA0
:106BA000FFF734FAE368C01AA3689842F2D34FF0B3
:106BB000FF3010BD10B504462046FFF7E6FF002861
:106BC0000ADB2D2808D0A0F13003092B04D9236853
:106BD00020465B699847EFE710BD2DE9F84F9B46CB
:106BE0000B78DDF8288081460F469246FBB90120DC
:106BF000BDE8F88F00244846FFF7B2FF061E14DDFB
:106C00007B5D9E4204D03B789E424FF0000502D14E
:106C10000135AA45EBD9B8F1000FEBD01BF80430D1
:106C20009E42E7D10134A045E5D80020E0E70024EA
:106C30002546E0E730B585B0054608461446039181
:106C400003F0D9FA0290204603F0D5FADDE90221DB
:106C5000009023462846FFF7C0FF05B030BD002254
:106C6000FFF7E8BF2DE9F04105460E46FFF7A2FF0A
:106C700000284FF000041CDB27464FF00A0886422C
:106C800008D02D2818D0A0F13003092B02D808FB1A
:106C90000404303C2B6828465B6998472846FFF778
:106CA00074FFA0F13003092BE9D98642F2D007B175
:106CB00064422046BDE8F0810127EBE70121FFF7A0
:106CC000D1BF000038B50D4607490446FFF7CFFD98
:106CD0002846FFF745FF002804DBC1B22046FFF736
:106CE0006FFEF5E7204638BD52A40D00014B024A65
:106CF0001A6070476CE6032050A50D00024B1A681D
:106D0000024B1A60704700BF98E3032070E603202F
:106D10000021FFF7FBBA10B58368044613B10322C4
:106D200001469847204610BD10B50446FFF7F3FF13
:106D3000204610BD0348044A04490023836000F044
:106D400003BF00BF74E6032004E40320296D0D0097
:106D5000014B1860704700BFA0E3032008B50B4B40
:106D600043B100F06BF903681B699847002801DD07
:106D7000AFF30080064B43B100F0DEF903681B69F6
:106D80009847002801DDAFF3008008BD0000000037
:106D90000000000008B5FFF7E1FFFFF737F9014BEE
:106DA000186008BDD4E703200248034A0349121AB9
:106DB00003F0C6B900F4032004F4032048A90D0031
:106DC00007B5002300931A466FF07701FFF7B0FA7A
:106DD00003B05DF804FB000007B543880A2B08D018
:106DE000502B0BD1094B1B684BB103B05DF804EB82
:106DF0001847FFF7E5FF03B05DF804FB002300939D
:106E00001A466FF07701FFF793FAF4E788E603205C
:106E100038B5124C1248134D0021FFF71BFB2368B5
:106E2000AB42114B0CBF012200221A7002D0FFF7B7
:106E3000BBFF2560FFF7E2F8044603F097F90B4B20
:106E400013B12046AFF3008000210848FFF7CAFACB
:106E5000BDE8384006480021FFF760BA00F403207F
:106E6000516D0D001E1C279A84E6032000000000CF
:106E7000D96D0D00704710B51821044600F069FE69
:106E8000204610BDF0B5037D062B8DB00E4600F1F7
:106E900004074FF0000412D000F1080515F8011D99
:106EA0000A223046FFF70DFEAF42044419D0002CF1
:106EB000F4D02E213046FFF7F5FD0444EEE72F23F2
:106EC0006A4639460A208DF80040FFF7B7F8684651
:106ED00003F091F933680246DB686946304698470B
:106EE000044620460DB0F0BD10B5054B04461122F6
:106EF00040F8043B002103F031F9204610BD00BFEB
:106F000078A50D000346074A10B543F8042B01F19C
:106F1000100251F8044B43F8044B9142F9D10A781E
:106F20001A7010BD78A50D00037D042B04D14068B4
:106F3000003818BF01207047062B07D143683BB9C2
:106F400083682BB9C3681BB90069F1E7002070475B
:106F50000120704710B59DF8084044EA032343EA36
:106F6000024242EA016104234160037510BD13B57A
:106F7000CB7800938B784A780978FFF7EBFF02B063
:106F800010BD41747047704708B50021007CFFF7C1
:106F900095F940EAE07008BD08B50121007CFFF7D3
:106FA0008DF940EAE07008BD08B5007CFFF77EF976
:106FB00020EAE07008BD08B5007CFFF76FF920EA11
:106FC000E07008BD13B50446007C0191FFF76EF92F
:106FD0000028019901DC607C20B1207CFFF776F964
:106FE00020EAE07002B010BD007CFFF777B910B561
:106FF0001421044600F0ADFD204610BD10B54FF43D
:107000007A73044608460021C4E90113044B236047
:107010000123207463741146FFF730F9204610BD38
:107020008CA50D00007C0022FFF730B910B51422AA
:107030000446002103F092F8204610BD10B5104C14
:1070400088B003A8FFF7F2FF2178BFF35B8F11F040
:10705000010111D120460191FDF723F8019958B1A2
:1070600003AA0848FFF7CAFF2046FDF71FF8064AA3
:107070000649044800F068FD024808B010BD00BF92
:107080008CE6032090E6032004E40320876F0D00C4
:1070900070474174704708B5007CFFF71FF820EA7D
:1070A000E07008BD08B5007CFEF7F0FF20EAE07054
:1070B00008BD08B5007CFEF7F9FF40EAE07008BDA6
:1070C00008B5007CFEF7EAFF40EAE07008BD007CEE
:1070D000FEF7F4BF37B5457C04462DB1207C03B0E4
:1070E000BDE83040FEF7CABF007C0191FEF7F6FF15
:1070F00000280199F2DC284603B030BD10B51421F8
:10710000044600F026FD204610BD000010B54FF0EB
:10711000000C0446084611464FF47A72C4E901C2D5
:10712000044A22600122207462741A46FEF79EFF10
:10713000204610BDBCA50D0013B50E4C2178BFF341
:107140005B8F11F0010112D120460191FCF7A9FFDC
:10715000019960B1084A094B0948FFF7D7FF20465B
:10716000FCF7A4FF074A0849054800F0EDFC044875
:1071700002B010BDA4E60320A8E603202CE70320FC
:10718000B0E7032004E4032091700D007047F8B5C8
:10719000064615460C468F18BC4206D0336814F8D4
:1071A000011B9B6830469847F6E72846F8BD007CEF
:1071B0000022FEF7B3BF007C0021FEF7B7BF007CC2
:1071C0000021FEF7BBBF007C0021FEF7BFBF007CA3
:1071D0000021FEF7C3BF10B51421044600F0B9FC2E
:1071E000204610BD10B54FF47A73044608460021BE
:1071F000C4E90113034B236020741146FEF7BEFF60
:10720000204610BDECA50D000023007C1A4619464F
:10721000FEF76CBF7FB500221423CDE90122ADF843
:1072200004300B788DF808304B680393CB680493D7
:10723000007C0B7A059301A9FEF7A8FF07B05DF863
:1072400004FB1FB5003B8DF800104FF06401039163
:1072500018BF0123694601928DF80830FFF7DAFF65
:1072600005B05DF804FB0123FFF7EBBF007C0022B3
:10727000FEF744BFC9B2FFF7F9BF007C0022FEF75A
:1072800045BF0121FFF7F9BF13B503688DF807105B
:10729000DC6B01224FF0FF330DF10701A04702B074
:1072A00010BD10B40368DC6B4FF0FF33A4465DF8EB
:1072B000044B604713B5134602688DF80710D46B72
:1072C0000DF107010122A04702B010BD704738B58B
:1072D00043691A68002A054610DAB3F88620B3F825
:1072E00084309A420AD103681B699847044628B93A
:1072F0002B682846DB6A9847204638BD0120FCE70A
:1073000043691868C043C00F70477047064B9942E5
:1073100010B500F10C0405D0084600F01FFC002851
:1073200008BF0024204610BD48A50D0010B5AC21B3
:10733000044600F00EFC204610BDFCF7B0BE2DE95F
:10734000F0414FF0000886B01D46C0F804800446A6
:107350000E4617464146102202A802F0FFFE6B1CA3
:1073600009D04FF47A70B5FBF0F3CDE9023800FB99
:10737000135358430490606910230093006802ABD4
:1073800041F2050240F6FF71FEF708FF002807DA18
:10739000FFF758F803686360002006B0BDE8F0818D
:1073A0006069002300683A463146FEF717FF031E66
:1073B000EEDB1846F1E7000070B54D69054B044659
:1073C0008C3544F8043B06460FCD0FC42B68237060
:1073D000304670BD78A50D0010B54369B3F886201E
:1073E000B3F884309A42044605D06369B3F8842028
:1073F0001344187910BD03681B6998470028F4D11D
:107400004FF0FF30F6E710B54369B3F88620B3F8C4
:1074100084309A42044608D06369B3F88420511C32
:10742000A3F884101344187910BD03681B699847AA
:107430000028F1D14FF0FF30F6E7F8B54369174661
:10744000B3F88620B3F884309A4205460E4616D02B
:107450006969B1F88430B1F88640E41ABC4228BFAB
:107460003C46043322461944304602F069FE6A69FC
:10747000B2F884302344A2F884302046F8BD036873
:107480001B6998470028E3D14FF0FF34F5E700006F
:107490002DE9F0439846036893B00D460024DB6A5B
:1074A00006461746984728466B46224621460094D2
:1074B000FEF774FD0546002863D1009B002B4BD0DE
:1074C0005B69002B48D006A8FFF70EFD009B5C69A6
:1074D0006378022B04D1211D06A8FFF748FD26E0A2
:1074E0000A2B24D11122294601A802F037FEA368F5
:1074F000002B38D004F108030DF1040C183418687F
:107500005968624603C20833A3429446F7D1062362
:1075100001A90CA88DF81430FFF7F4FC0DF1340C20
:10752000BCE80F0007AC0FC4DCF80030237006A8DD
:10753000FFF7FAFC80B1336807ADD3F82090124B07
:107540000C930FCD0DAC0FC42B6823703A46434605
:107550000CA93046C84705460098FEF717FD284697
:1075600013B0BDE8F083E368002BC3D14FF6FF7082
:10757000D4F81090FEF76AFD8145BBD104F11401E7
:10758000AAE72546E8E700BF78A50D004269002379
:10759000A2F884304269A2F8863070472DE9F041A4
:1075A0001F4603680C46DB6A8AB0054616469847B4
:1075B000237DD5F81480042B0CBF02200A2006225C
:1075C0000121FEF713FEC8F800006B691B68002B51
:1075D00008DA2B682846DB6A0024984720460AB060
:1075E000BDE8F0812846FFF7D1FFB7B1002303A91A
:1075F000F8B20393ADF81030FEF7F8FC0028E8D19C
:10760000686906230093006803AB41F20B0240F661
:10761000FF71FEF7C3FD0028DBD11C22002103A867
:1076200002F09CFD237D042B1DD14FF407733046DF
:10763000ADF80C30FEF712FDADF80E006068FEF7F5
:1076400005FD04906B691C22186803A9FEF7B6FDBE
:107650000028BED104340FCC6D698C350FC523686A
:107660002B700124BAE740F61C233046ADF80C30ED
:10767000FEF7F4FC05AEADF80E00231D04F114076F
:1076800018685968324603C20833BB421646F7D120
:10769000D8E7000030B54269B2F886308BB00446B6
:1076A0002BB1B2F884209A4201D1FFF76FFF6169D4
:1076B0000868002818DBB1F886507F2D14D80431F3
:1076C0000823C5F180022944FEF780FD002813DD60
:1076D0006369B3F886200AB9A3F884206369B3F814
:1076E00086201044A3F886006369B3F88600B3F8D7
:1076F0008430C01A0BB030BDFEF7A4FE03680B2B1C
:10770000F2D0FEF79FFE03680B2BEDD0202300255F
:10771000CDE90235FEF796FE03680193084B09494F
:10772000009302AA2B463220FEF7E0FD6369186839
:10773000FEF73CFD63694FF0FF321A60D4E700BFEB
:1077400013A60D000CA60D0010B543690446186879
:10775000002801DBFEF72AFD63694FF0FF321A6053
:107760006069112200218C3002F0F8FC2046BDE84F
:107770001040FFF70BBF10B5002304460160C0F8AE
:1077800084308830FFF7B0FB204610BD73B500236E
:107790004FF47A72C0E901320E4A0361026043611C
:1077A0000446AC200191FCF776FC051E05F10C06A1
:1077B00008D00123C5E90133074B01992B603046FE
:1077C000FFF7D9FF2046C4E90565FFF7DFFE02B0E9
:1077D00070BD00BF48A60D002CA60D0010B54FF0DF
:1077E000FF310446FFF7D2FF204610BD10B5044616
:1077F0000068002801DBFEF7D9FC204610BD0C30E4
:10780000FFF7F4BF002240681146FEF7B3BD002227
:1078100040681146FEF7CEBD002240681146FEF7D3
:10782000D9BD40680022FEF7CDBD4068002281F03E
:107830000101FEF7B7BD002340681A461946FEF75E
:10784000A9BD002340681A461946FEF79BBD0022D9
:1078500040681146FEF77EBD406800220221FEF717
:1078600081BD002340681A46FEF76CBD024B04221E
:107870005A60024A1A607047C4E7032094A60D00BC
:10788000002340681A46FEF75DBD406800220221D1
:10789000FEF768BD002240681146FEF75BBD00227E
:1078A00040681146FEF766BD002340681A46194637
:1078B000FEF768BD002340681A461946FEF76ABD08
:1078C0004068002281F00101FEF76CBD4068002293
:1078D000FEF778BD002240681146FEF77BBD00220E
:1078E00040681146FEF766BD2DE9F043002495B0CF
:1078F00016460D460746FFF7F7FA214618220EA84E
:10790000009402F02BFC4023CDE90C3421466B4659
:107910000CAA3046FEF742FB0446002846D1024638
:1079200001216868FEF726FD02218046224668682C
:10793000FEF720FD009E81462146002E36D000290C
:1079400034D17368022B03D00A2B0BD0F669F4E70D
:10795000B8F1000F04D0716938460431FFF707FB16
:107960004146F3E7B9F1000F01D14946EEE77469EA
:10797000102201A802F0F2FB06238DF8143001ADAD
:1079800004F108031834186859682A4603C20833FA
:10799000A3421546F7D101A906A807ADFFF7B2FA31
:1079A0000FCD3C1D0FC42B682370DEE70098FEF757
:1079B000EDFA384615B0BDE8F0830000024B034AEB
:1079C0001A6000225A607047CCE70320C8A60D0059
:1079D000232813B502D9002002B010BDA0F10B037B
:1079E000022B1AD8174C2178BFF35B8F11F00101DD
:1079F0000BD120460191FCF754FB019928B11248A4
:107A0000FEF774FD2046FCF751FB0F4B1878FEF78C
:107A10000DFC0028DFD10120DEE7012809D800F0A5
:107A20006BF80021007CFEF7A1FB80F00100C0B2E2
:107A3000D2E709380128EED8FFF77EFB007CFEF77D
:107A400045FBF2E76CE5032070E50320232838B5F9
:107A500004460D460AD8FF2908D0FFF7B9FF28B120
:107A600029462046BDE83840FEF7A0BA38BD38B5F3
:107A700004460D46FEF7A2FAFF2810D0062804D8C7
:107A80004D2323FA00F0C30709D42046FFF7A0FFD7
:107A900028B129462046BDE83840FEF797BA38BDE0
:107AA00010B50446FEF78AFA031FDBB2012B08D992
:107AB0002046FFF78DFF20B12046BDE81040FEF7BD
:107AC0008DBA002010BD000038B50023202543806A
:107AD000142304460380856005610649284600F0AA
:107AE0003AF804496060284600F035F8E060204626
:107AF00038BD00BFF4A60D0030B50F4D2978BFF397
:107B00005B8F11F0010487B013D12846FCF7C9FA46
:107B100078B101A8FFF7D8FF01AA21460748FFF76F
:107B200061FB2846FCF7C2FA054A0649034800F003
:107B30000BF8024807B030BDD8E70320DCE703208C
:107B400004E403208D710D000B460146184602F037
:107B5000E9BAFCF7A4BAFCF7A0BA0000014900F0AA
:107B6000F9B800BF10A70D007FB500241023CDE9A0
:107B70000234036800949E698DF8044015466B46F4
:107B80001268B0479DF8043003F00603062B03BFCC
:107B9000009B2B600120204604B070BD00989042ED
:107BA00014BF01200620704710B5034B0360044644
:107BB00000F0CDF8204610BD50A70D0010B50446CA
:107BC000FFF7F2FF20460821FFF7C3FF204610BD54
:107BD0002DE9F0411F46DDE90834DDF818809845AD
:107BE0000646154607D1079900F0B4F818B165713B
:107BF0000020BDE8F0813946304600F0ABF800289F
:107C0000F6D00123C4F800802571A371F0E738B5E0
:107C100015461C4600F09EF820B10823E3600623B9
:107C20002560237138BD73B505460C4601921E468A
:107C300000F090F850B9032E08D82368019A5B69C8
:107C40002946204602B0BDE87040184702B070BD1A
:107C500010B5034B03600446FFF7A6FF204610BD96
:107C6000B0A70D0010B50446FFF7F2FF20460C2127
:107C7000FFF76FFF204610BDF7B5089F97420546F6
:107C80000E4614460AD0A86802680897156A31465D
:107C90002246AC4603B0BDE8F04060471946019368
:107CA00000F058F8019B0028EDD0062003B0F0BD8D
:107CB0002DE9F14F0D461946DDE90A4BDDE90CA629
:107CC00081461746984600F045F890B1002D346083
:107CD000377109DB61198A450CBF06210121B17199
:107CE000002001B0BDE8F08F0235F9D10123B37156
:107CF000F6E7544506D15946484600F02BF808B13E
:107D00007771EDE7D9F808000368CDE90CA6CDE955
:107D10000A4BDC693A4643462946A44601B0BDE811
:107D2000F04F60472DE9F04107460C4615461E46C8
:107D3000FFF76DFF48B9B86803689F692A46334664
:107D40002146BC46BDE8F0416047BDE8F081704780
:107D500000207047814208B50ED0406803782A2B76
:107D60000CD049680B782A2B08BF013102F031FA98
:107D7000B0FA80F0400908BD0120FCE70020FAE7D6
:107D80002DE9F04F2DED028B8DB057EC106B55ECBB
:107D9000114B00F009FAAE4BB0EE408AF0EE608A6B
:107DA00093F90090B9F1FF3F37D022462B46204689
:107DB000294601F035FE834678BB32463B463046C5
:107DC000394601F02DFE8046002840F093804FF0A8
:107DD000000A4FF0000B3046394652465B4601F030
:107DE000EDFD18B352465B462046294601F0E6FDFC
:107DF0000090002857D0974BCDF828800122CDE97C
:107E00000467CDE90645CDE908AB02920393B9F1C9
:107E1000000F00F089809FED8A8BB0EE480AF0EEEB
:107E2000680A0DB0BDEC028BBDE8F08FB0EE480AD9
:107E3000F0EE680A01F060F88046002800F08280C9
:107E40004FF000084FF0000951EC180B42464B462A
:107E500001F0B4FD0028E0D047EC106B01F04CF8C5
:107E60000028DAD045EC104B01F046F80028D4D0B9
:107E7000774B784A93F90030039204210022022BB9
:107E8000CDE90467CDE90645CDE9088902910A925A
:107E900004D002A801F03CF800284AD1FEF7D2FA3B
:107EA0002223036045E045EC104B01F025F8002843
:107EB000B3D052465B462046294601F089FD002892
:107EC000ABD0634B0099634A93F900300A910121CA
:107ED000CDE90467CDE90645CDE90212002B6FD14B
:107EE000CDE908AB02A801F013F800286ED00A9B78
:107EF0002BB320E0002200232046294601F05EFD3E
:107F000000288AD09FED4E8B524BCDF828B001222D
:107F1000B9F1020FCDE90467CDE906458DED088B77
:107F2000029203933FF479AF02A800F0F1FF00281A
:107F300051D00A9B1BB1FEF785FA0A9B03609DEDA9
:107F4000088B6AE747EC106B00F0D6FF00283FF47F
:107F500077AF45EC104B00F0CFFF00283FF470AF37
:107F600053EC182B18EE100A194601F059FD384B46
:107F7000002840F0968093F900800A900323029332
:107F8000344B0393CDE90467CDE90645B8F1000F02
:107F900026D1DFF8D0904FF0604852465B4630461D
:107FA0003946CDE9088901F013FD48BB02A800F06D
:107FB000AFFF00289BD1FEF745FA2223036096E726
:107FC00025490020022BCDE908018BD1FEF73AFAB2
:107FD000212303608BE7FEF735FA21230360A8E72E
:107FE0009FED197B52465B46304639468DED087B46
:107FF00001F0EEFC002837D1B8F1020FDBD0D5E755
:10800000164B00222046294601F070FA02460B4624
:1080100043EC102BCDE9002300F086FFDDE90023BF
:1080200051EC100B01F0CAFC002836D10C4B08496A
:108030004FF06042CDE9082391F90080DCE700BFF2
:10804000000000000000F03F000000000000F07F92
:108050009CE30320ECA70D000000F0FF0000E03FD0
:10806000FFFFEFC7FFFFEF471C4B002220462946CA
:1080700001F03CFA02460B4643EC102BCDE90023FD
:1080800000F052FFDDE9002351EC100B01F096FCEB
:1080900018B9134B0022CDE90823124B93F9008045
:1080A000AAE793F90090104BCDF828800122CDE982
:1080B0000467CDE90645CDE90223B9F1000F3FF48D
:1080C0000FAF52465B465046594601F039FBB9F1B5
:1080D000020FCDE908013FF479AF03E70000E03F6C
:1080E0000000F0FF9CE30320ECA70D002DE9F04316
:1080F0002DED028B8BB055EC104B00F02FFE284B72
:10810000B0EE408AF0EE608A93F900707B1C12D0CA
:1081100022462B462046294601F082FC064650B9ED
:108120004FF000084FF000092046294642464B46D2
:1081300001F04EFC40B9B0EE480AF0EE680A0BB010
:10814000BDEC028BBDE8F083164B08960122CDE909
:108150000445CDE902450092019397B142464B4652
:108160004046494601F0ECFA022FCDE906010AD15A
:10817000FEF768F921230360089B63B99DED068B28
:10818000D9E7CDE90689684600F0C2FE0028EFD0A5
:10819000089B002BF2D0FEF755F9089B0360EDE732
:1081A0009CE30320F0A70D002DE9F04F57EC116B75
:1081B0002DED0A8B27F0004A5AEA060289B03DD01D
:1081C00055EC104B764925F00048884510EE102AF2
:1081D000A9462CDC11EE103ABB463AD08A4526DC83
:1081E0006F498A4521D0B9F1000F3DDB0021039191
:1081F000002B55D16A4B9A4500F0A880694B9A45EF
:1082000000F0B680BBF1804F00F00185664B9B45C6
:1082100046D1B9F1000F43DB45EC104B09B0BDEC82
:108220000A8BBDE8F04F00F099BD002BDBD008F1C0
:10823000404808F5801858EA02030DD19FED547BA1
:108240008DED007B9DED000B09B0BDEC0A8BBDE808
:10825000F08F0CB9C245C3DD544809B0BDEC0A8BA0
:10826000BDE8F04F00F058BE51498A4500F38780C1
:10827000A1F154718A450FDD4FEA2A51A1F2FF3175
:10828000142940F3CE84C1F1340123FA01F000FA3D
:1082900001F1994200F0208500210391002BADD01F
:1082A00045EC104B069200F01DFE069A8DED000B7A
:1082B0005ABBB8F1000F04D03A4B29F040429A4221
:1082C00023D1BBF1000F07DADDE900233549002097
:1082D00001F036FACDE90001B9F1000FB2DA039BE3
:1082E00008F1404808F5801858EA030340F0BE84BE
:1082F000DDE900231046194600F040FF02460B4618
:1083000001F01EFACDE900019CE7039A4FEAD97308
:10831000013B0693134335D0264B9A454EDD03F1BE
:1083200004739A45244B40F3ED83984540F36B83E7
:10833000BBF1000F40F36B8317A3D3E90023104672
:10834000194601F0D3F8CDE900017BE708F140437D
:1083500003F5801313433FF471AF174B984540F377
:108360008883BBF1000FC0F25283CDE9006769E753
:10837000BBF1000FC0F24184CDE9004562E7022164
:10838000039135E722462B46B4E700BFAFF30080E8
:10839000000000000000F03F9C7500883CE4377E40
:1083A0000000F07F0000F03F0000E03FF4A70D0068
:1083B000FFFF3F430000E041FFFFEF3FE44B09EACE
:1083C0000303002B40F01684DDE90001E14B00229D
:1083D00001F08CF8CDE90001DDF804806FF0340085
:1083E0004FEA2853DC49C8F31302A3F2FF3342F0EB
:1083F0007F5818188A42079048F4401840F3E983E0
:10840000D64B9A4240F33E849FEDBB7BB0EE47BA19
:10841000F0EE67BAB0EE47CAF0EE67CA9FEDB87BE0
:10842000013054EC173B0790A8F580184FF0000975
:10843000DDE900AB44EC183B1A4650462346414662
:1084400000F09CFE53EC182B04460D465046414666
:1084500000F096FE02460B460020C14901F070F97B
:1084600045EC1A4B41EC190B51EC1A0B53EC192B40
:1084700001F03CF8C3464FEA680848F0005808F598
:10848000002303EB09050A4600230146CDE900124B
:108490000093DDE900890024CDE904122B46224631
:1084A0004046494601F022F802460B4651EC1A0BB1
:1084B00000F064FE41EC170B53EC182B20462946C4
:1084C00055EC174B00F05AFE02460B4650465946F3
:1084D00000F054FE42464B4601F008F802460B46B7
:1084E0002046294600F04AFE53EC192B00F0FEFF0F
:1084F000DDE904AB04460D4652465B4650465946FC
:1085000000F0F4FF80A3D3E9002345EC1A4B0446A6
:108510000D4600F0EBFF7EA3D3E9002300F030FE10
:1085200022462B4600F0E2FF7BA3D3E9002300F0B4
:1085300027FE22462B4600F0D9FF79A3D3E900237A
:1085400000F01EFE22462B4600F0D0FF76A3D3E9B2
:10855000002300F015FE22462B4600F0C7FF74A34F
:10856000D3E9002300F00CFE22462B4604460D46BC
:108570001046194600F0BAFF02460B46204629462F
:1085800000F0B4FF424604460D464B46504659465D
:10859000CDE904AB00F0F4FD53EC1A2B00F0A6FF7C
:1085A00022462B4600F0ECFD424604460D464B4663
:1085B0004046494600F09AFF45EC194B694B0022B2
:1085C00082468B4600F0DCFD53EC192B00F0D8FD01
:1085D000009C0D4622462B464046494600F086FF49
:1085E000604B8046894600222046294600F0C6FDA1
:1085F00052465B4600F0C2FD02460B4651EC190B99
:1086000000F0BCFDDDE9042300F070FF49EC188B9D
:108610002246804689462B4651EC1A0B00F066FF35
:1086200002460B464046494600F0AAFD82468B466C
:1086300052465B4651EC180B00F0A2FD009C3EA395
:10864000D3E9002320460D4600F050FF53EC182BD1
:10865000804689462046294600F090FD02460B469A
:108660005046594600F08AFD35A3D3E9002300F0B7
:108670003DFF49EC198B34A3D3E90023804689469A
:108680002046294600F032FF02460B464046494646
:1086900000F076FD53EC1C2B00F072FD824607982B
:1086A0008B4600F0B9FE5246804689465B4651EC47
:1086B000190B00F065FD53EC1B2B00F061FD4246E9
:1086C0004B4600F05DFD009C42464B4620460D4661
:1086D00000F054FD53EC1B2B00F050FD53EC192B14
:1086E00000F04CFD02460B465046594600F046FD50
:1086F00082468B4638E000BF00000000000000000A
:10870000000000000000F03FEF4E454A287ECA3FBF
:1087100065DBC9934A86CD3F01411DA96074D13FF5
:108720004D268F515555D53FFFAB6FDBB66DDB3F07
:10873000033333333333E33F000000E009C7EE3F38
:10874000FD033ADC09C7EE3FF5015B14E02F3EBEA6
:108750000000F07F000040438E98030079B60B00C4
:108760000000F03F00000840039B069A013B1343C2
:1087700040F078819FEDC47BB0EE479AF0EE679AA7
:108780000023CDE900670093DDE9008930464246C9
:1087900039464B4600F0F2FC22462B4600F0A6FE7E
:1087A00032463B4606460F465046594600F09EFE6E
:1087B00002460B463046394600F0E2FC424682460D
:1087C0008B464B462046294600F090FE06460F4653
:1087D0003B4650465946324600F0D2FCC44B9942C3
:1087E00004460D46884640F3178101F13F4303F5E7
:1087F000E003034340F02A82A5A3D3E900235046B7
:10880000594600F0BDFC324641EC180B3B46204671
:10881000294600F0B3FC02460B4651EC180B01F060
:10882000F5F8002840F01282C8F30A534FF4801282
:10883000A3F2FE3342FA03F34344AE49C3F30A52B0
:10884000A2F2FF3241FA02FCC3F3130523EA0C0142
:10885000C2F1140445F48015B8F1000F0B4645FA37
:1088600004F103914FF00000B8BF49420246B8BF7F
:1088700003913046394600F081FC06460F463B46E0
:1088800050465946324600F07BFC039B1B05009383
:108890000D46002480A3D3E900232046294600F09A
:1088A00025FE3246804689463B462046294600F052
:1088B00065FC02460B465046594600F05FFC78A323
:1088C000D3E9002300F012FE77A3D3E90023064684
:1088D0000F462046294600F009FE02460B46304668
:1088E000394600F04DFC06460F4632463B464046B0
:1088F000494600F045FC42464B4604460D4600F012
:108900003DFC02460B463046394600F037FC224615
:1089100082468B462B462046294600F0E7FD64A39D
:10892000D3E9002306460F4600F0E0FD62A3D3E939
:10893000002300F023FC32463B4600F0D7FD60A345
:10894000D3E9002300F01CFC32463B4600F0CEFD8C
:108950005DA3D3E9002300F011FC32463B4600F052
:10896000C5FD5BA3D3E9002300F00AFC32463B4679
:1089700000F0BCFD02460B462046294600F0FEFBF7
:1089800006460F4632463B462046294600F0AEFDDD
:108990000022804689464FF080433046394600F039
:1089A000EDFB02460B464046494600F0C9FE5246E2
:1089B00006460F465B462046294600F097FD524684
:1089C0005B4600F0DDFB02460B463046394600F0C0
:1089D000D5FB22462B4600F0D1FB02460B46002079
:1089E000454900F0CBFB0B4600991944B1F5801FB7
:1089F0000246C0F26981104653EC192B00F076FD57
:108A0000CDE900011EE4BBF1000FFFF695AC9FED30
:108A1000327B8DED007B15E4DFF8E4C021F00043EC
:108A2000634540F30B81354B0B4403430AD1324677
:108A30003B4600F0A3FB52465B4600F0DDFF0028FA
:108A40003FF4F2AE26A3D3E9002351EC190B00F05A
:108A50004DFD23A3D3E9002300F048FDCDE900013B
:108A6000FFF7F0BB9FED207BB0EE479AF0EE679AE0
:108A700086E6BBF1000FCADA07F1004300960193C6
:108A8000FFF7E0BBAFF30080000000000000F0BF84
:108A9000FE822B654715973C00000000432EE63F01
:108AA000EF39FAFE422EE63F396CA80C615C20BE1D
:108AB000D0A4BE726937663EF16BD2C541BDBB3EE4
:108AC0002CDE25AF6A56113F93BDBE166CC1663FC2
:108AD0003E5555555555C53F0000000000000000AB
:108AE00059F3F8C21F6EA501000000000000F03F1E
:108AF000FFFF8F40FFFF0F000000F03F00346F3F8B
:108B0000FFCB90409845FFF67EAF914B98453FF7DD
:108B10000FAC8F4B0022DDE9000100F02FFB78A3A2
:108B2000D3E9002304460D4600F0E0FC76A3D3E928
:108B3000002382468B462046294600F0D7FC854B11
:108B40008046894600222046294600F0CFFC024696
:108B50000B466FA1D1E9000100F010FB22462B4625
:108B600000F0C4FC02460B4600207B4900F006FBE7
:108B700022462B4604460D461046194600F0B6FC28
:108B800002460B462046294600F0B0FC62A3D3E91A
:108B9000002300F0ABFC02460B464046494600F07D
:108BA000EDFA804689465046594642464B4600F00B
:108BB000E7FA002452465B4620460D4600F0DEFAF6
:108BC00002460B464046494600F0D8FA82468B469C
:108BD000CAE59FED537BB0EE47BAF0EE67BAB0EE50
:108BE00047CAF0EE67CA9FED507B4FF0000954EC86
:108BF000173B1DE40020FFF7F3BB554922462B46E7
:108C0000002000F09DFDCDE90001FFF71BBB2246CF
:108C10002B462046294600F069FCCDE90001FFF70C
:108C200011BB002B42D1C1F114014AFA01F000FA44
:108C300001F151455AD00393FFF7E0BA464A9342F7
:108C40005BDCDDE900120091039122E638A3D3E951
:108C5000002351EC190B00F049FC35A3D3E90023A4
:108C600000F044FCCDE90001FFF7ECBA039B012BB7
:108C70007FF4E8AADDE9002101F10043CDE90023FA
:108C8000FFF7E0BA9FED2C7BB0EE47BAF0EE67BA83
:108C90009FED2B7BB0EE47CAF0EE67CA9FED2A7BB3
:108CA0004FF4802954EC173BFFF7C2BB45EC104B47
:108CB000039200F017F9039A8DED000B002A7FF460
:108CC00061AB0392FFF7F5BA039843EC102B00F069
:108CD000BFF951EC100B8FE600F00100C0F102016A
:108CE0000391002B3FF48AAAFFF7DABA00F00100E3
:108CF000C0F102030393FFF781BA1B1596E500BF8D
:108D0000000000604715F73F44DF5DF80BAE543EAE
:108D1000555555555555D53FFE822B654715F73F9F
:108D20000000000000000000000000000000F03F14
:108D30009C7500883CE4377E0000004003B8E23FA9
:108D400006D0CF43EBFD4C3E000000000000F83F92
:108D50000000F03F0000D03F0000E03F2DE9F0416F
:108D60005F4A57EC106BBA4300F09880002F10EE6A
:108D7000104A3B464EDD39155BD0C3F31303CA07D7
:108D800043F48013A1F2FF3E03D45B0003EBD473E2
:108D90006400E20F4FF0000C02EB43034FEA6E0E4B
:108DA0006400664616254FF40012B118994202DCA1
:108DB0005B1A8E1894445B00013D03EBD4734FEAB9
:108DC00052024FEA4404F0D12F4620204FF00042D7
:108DD00009E03ED0E10F01384FEA520201EB4303B4
:108DE0004FEA44043ED0B34202EB0501F1DD002915
:108DF00001EB020509DBB0469B1BA14288BF03F1D2
:108E0000FF33641A17444646E4E7002DF3DB06F10E
:108E10000108F1E727F00042324336D0002F4DD150
:108E20003946E20A153964051346002AF9D0D702FB
:108E300051D400205B00DE02054600F10100F9D5A7
:108E40001A4623468440C0F12000C3401343491B07
:108E500093E7A142BED8002901EB0205D5DB984675
:108E60000023CEE7234312D178084FEA6C0101F1C9
:108E70007F511CF0010F01F5001118BF40F00040B8
:108E800001EB0E53024643EC102BBDE8F0817B1C36
:108E900016BF781C0CF1010C4008E6E710EE102A12
:108EA00010EE100A3B46394600F020FB32463B46A6
:108EB00000F066F941EC100BBDE8F08110EE102ACD
:108EC0003046394600F05AF902460B4600F038FCAD
:108ED00041EC100BD9E7234620204FF0FF35B4E7D3
:108EE0000000F07F51EC100B10EE102A21F000432F
:108EF00043EC102B704700BF82B08DED000B019842
:108F000040F0004000F58010C00F02B0704700BF75
:108F100000207047000000009FED010B704700BF6C
:108F2000000000000000F87FF0B553EC102BC3F3F5
:108F30000A56A6F2FF30132810EE105A83B01946D5
:108F40004FEAD37431DC00284CDB3E4E064103EA85
:108F5000060717432ED003EA56031D434FEA560671
:108F60000CD04FF48023132821EA060643FA00F1BF
:108F700041EA06010CBF4FF000450025324800EBE6
:108F8000C4042A46D4E900450B462046294600F091
:108F9000F7F8CDE90001DDE9000122462B4600F09B
:108FA000EDF841EC100B03B0F0BD332806DDB0F551
:108FB000806F40D043EC102B03B0F0BDA6F21346F7
:108FC0004FF0FF30F0400242F4D015EA50024FEA71
:108FD0005003D3D04FF0804225EA030542FA06F64B
:108FE0003543CBE723F000401043E3D0C3F3130035
:108FF000104345420543144800EBC400D0E9006724
:10900000590C2D0B490405F4002545EA01033046AF
:10901000394600F0B5F8CDE900013B46DDE9000135
:10902000324600F0ABF821F0004343EAC47141EC52
:10903000100B03B0F0BD10EE100A00F0A1F841ECE7
:10904000100BB9E7FFFF0F00F8A70D0000000000AC
:1090500038B553EC102BC3F30A511C46054681BBAF
:1090600010EE101A23F00044214329D019460022A3
:109070003D4B3E4C10EE100A00F038FAA542024675
:109080000B4616DB0C46C1F30A513639294440F22F
:10909000FE70814221DC002947DC11F1350F34DA02
:1090A0004CF250318D4218DC002B27A1D1E9000190
:1090B00044DB25A3D3E9002300F018FA41EC100BA0
:1090C00038BD40F2FF708142E0D110EE100A19461F
:1090D00000F056F841EC100B38BD002B1CA1D1E973
:1090E000000107DB1AA3D3E9002300F0FFF941ECEC
:1090F000100B38BD18A1D1E9000115A3D3E9002355
:1091000000F0F4F941EC100BF3E724F0FF4424F4F1
:10911000E004363144EA0153104619460022144B4C
:1091200000F0E4F941EC100B38BD24F0FF4424F4C6
:10913000E00444EA015343EC102B38BD08A1D1E907
:109140000001B6E7AFF3008059F3F8C21F6EA50126
:109150009C7500883CE4377E9C7500883CE437FEB3
:1091600059F3F8C21F6EA58100005043B03CFFFFC9
:109170000000903C81F0004102E000BF83F000431A
:1091800030B54FEA41044FEA430594EA050F08BFA2
:1091900090EA020F1FBF54EA000C55EA020C7FEA66
:1091A000645C7FEA655C00F0E2804FEA5454D4EBE3
:1091B0005555B8BF6D420CDD2C4480EA020281EAAD
:1091C000030382EA000083EA010180EA020281EAE5
:1091D0000303362D88BF30BD11F0004F4FEA013137
:1091E0004FF4801C4CEA113102D0404261EB410146
:1091F00013F0004F4FEA03334CEA133302D05242CC
:1092000063EB430394EA050F00F0A780A4F1010487
:10921000D5F1200E0DDB02FA0EFC22FA05F28018C1
:1092200041F1000103FA0EF2801843FA05F35941A7
:109230000EE0A5F120050EF1200E012A03FA0EFC26
:1092400028BF4CF0020C43FA05F3C01851EBE37150
:1092500001F0004507D54FF0000EDCF1000C7EEB6D
:1092600000006EEB0101B1F5801F1BD3B1F5001FAB
:109270000CD349085FEA30004FEA3C0C04F10104CA
:109280004FEA445212F5800F80F09A80BCF1004FF3
:1092900008BF5FEA500C50F1000041EB045141EA75
:1092A000050130BD5FEA4C0C404141EB0101013C3E
:1092B00028BFB1F5801FE9D291F0000F04BF01462D
:1092C0000020B1FA81F308BF2033A3F10B03B3F1FF
:1092D00020020CDA0C3208DD02F1140CC2F10C028F
:1092E00001FA0CF021FA02F10CE002F11402D8BFED
:1092F000C2F1200C01FA02F120FA0CFCDCBF41EAB9
:109300000C019040E41AA2BF01EB0451294330BD87
:109310006FEA04041F3C1CDA0C340EDC04F1140464
:10932000C4F1200220FA04F001FA02F340EA03003B
:1093300021FA04F345EA030130BDC4F10C04C4F181
:10934000200220FA02F001FA04F340EA0300294661
:1093500030BD21FA04F0294630BD94F0000F83F4AB
:10936000801306BF81F480110134013D4EE77FEA8E
:10937000645C18BF7FEA655C29D094EA050F08BFDA
:1093800090EA020F05D054EA000C04BF19461046BB
:1093900030BD91EA030F1EBF0021002030BD5FEAFF
:1093A000545C05D14000494128BF41F0004130BD27
:1093B00014F580043CBF01F5801130BD01F000457B
:1093C00045F0FE4141F470014FF0000030BD7FEAEE
:1093D000645C1ABF194610467FEA655C1CBF0B46E9
:1093E000024650EA013406BF52EA033591EA030F00
:1093F00041F4002130BD00BF90F0000F04BF0021F8
:10940000704730B54FF4806404F132044FF000052A
:109410004FF0000150E700BF90F0000F04BF0021A3
:10942000704730B54FF4806404F1320410F0004509
:1094300048BF40424FF000013EE700BF42004FEA04
:10944000E2014FEA31014FEA02701FBF12F07F4381
:1094500093F07F4F81F06051704732F07F4208BF38
:10946000704793F07F4F04BF41F40021704730B53F
:109470004FF4607401F0004521F000411CE700BF8B
:1094800050EA010208BF704730B54FF000050AE00E
:1094900050EA010208BF704730B511F0004502D50F
:1094A000404261EB41014FF4806404F132045FEA11
:1094B000915C3FF4D8AE4FF003025FEADC0C18BFBA
:1094C00003325FEADC0C18BF033202EBDC02C2F1AC
:1094D000200300FA03FC20FA02F001FA03FE40EA3E
:1094E0000E0021FA02F11444BDE600BF70B54FF042
:1094F000FF0C4CF4E06C1CEA11541DBF1CEA135520
:1095000094EA0C0F95EA0C0F00F0DEF82C4481EA87
:10951000030621EA4C5123EA4C5350EA013518BFA7
:1095200052EA033541F4801143F4801338D0A0FB94
:1095300002CE4FF00005E1FB02E506F00042E0FB41
:1095400003E54FF00006E1FB03569CF0000F18BF47
:109550004EF0010EA4F1FF04B6F5007F64F54074EF
:1095600004D25FEA4E0E6D4146EB060642EAC62182
:1095700041EA55514FEAC52040EA5E504FEACE2EEF
:10958000B4F1FD0C88BFBCF5E06F1ED8BEF1004FF2
:1095900008BF5FEA500E50F1000041EB045170BD6E
:1095A00006F0004646EA010140EA020081EA0301B2
:1095B000B4EB5C04C2BFD4EB0C0541EA045170BDAE
:1095C00041F480114FF0000E013C00F3AB8014F128
:1095D000360FDEBF002001F0004170BDC4F1000471
:1095E000203C35DA0C341BDC04F11404C4F12005F2
:1095F00000FA05F320FA04F001FA05F240EA02004D
:1096000001F0004221F0004110EBD37021FA04F682
:1096100042EB06015EEA430E08BF20EAD37070BD3C
:10962000C4F10C04C4F1200500FA04F320FA05F09B
:1096300001FA04F240EA020001F0004110EBD3709D
:1096400041F100015EEA430E08BF20EAD37070BD0D
:10965000C4F1200500FA05F24EEA020E20FA04F3E6
:1096600001FA05F243EA020321FA04F001F0004195
:1096700021FA04F220EA020000EBD3705EEA430E06
:1096800008BF20EAD37070BD94F0000F0FD101F035
:109690000046400041EB010111F4801F08BF013C6E
:1096A000F7D041EA060195F0000F18BF704703F0AC
:1096B0000046520043EB030313F4801F08BF013D33
:1096C000F7D043EA0603704794EA0C0F0CEA1355EF
:1096D00018BF95EA0C0F0CD050EA410618BF52EAA9
:1096E0004306D1D181EA030101F000414FF00000AF
:1096F00070BD50EA410606BF1046194652EA4306BD
:1097000019D094EA0C0F02D150EA013613D195EA30
:109710000C0F05D152EA03361CBF104619460AD178
:1097200081EA030101F0004141F0FE4141F4700182
:109730004FF0000070BD41F0FE4141F4780170BD72
:1097400070B54FF0FF0C4CF4E06C1CEA11541DBFD7
:109750001CEA135594EA0C0F95EA0C0F00F0A7F8D9
:10976000A4EB050481EA030E52EA03354FEA013106
:1097700000F088804FEA03334FF0805545EA131319
:1097800043EA12634FEA022245EA111545EA1065E1
:109790004FEA00260EF000419D4208BF964244F178
:1097A000FD0404F5407402D25B084FEA3202B61A97
:1097B00065EB03055B084FEA32024FF480104FF46B
:1097C000002CB6EB020E75EB030E22BFB61A7546DF
:1097D00040EA0C005B084FEA3202B6EB020E75EB72
:1097E000030E22BFB61A754640EA5C005B084FEADA
:1097F0003202B6EB020E75EB030E22BFB61A7546A7
:1098000040EA9C005B084FEA3202B6EB020E75EBB1
:10981000030E22BFB61A754640EADC0055EA060E72
:1098200018D04FEA051545EA16754FEA06164FEAB5
:10983000C30343EA52734FEAC2025FEA1C1CC0D161
:1098400011F4801F0BD141EA00014FF000004FF0EE
:10985000004CB6E711F4801F04BF01430020B4F1AF
:10986000FD0C88BFBCF5E06F3FF6AFAEB5EB030C67
:1098700004BFB6EB020C5FEA500C50F1000041EB64
:10988000045170BD0EF0004E4EEA113114EB5C0431
:10989000C2BFD4EB0C0541EA045170BD41F4801104
:1098A0004FF0000E013C90E645EA060E8DE60CEA0C
:1098B000135594EA0C0F08BF95EA0C0F3FF43BAF29
:1098C00094EA0C0F0AD150EA01347FF434AF95EAE0
:1098D0000C0F7FF425AF104619462CE795EA0C0FC4
:1098E00006D152EA03353FF4FDAE1046194622E791
:1098F00050EA410618BF52EA43067FF4C5AE50EA6B
:1099000041047FF40DAF52EA43057FF4EBAE12E75A
:109910004FF0FF3C06E000BF4FF0010C02E000BF3B
:109920004FF0010C4DF804CD4FEA410C7FEA6C5C1E
:109930004FEA430C18BF7FEA6C5C1BD001B050EAC1
:10994000410C0CBF52EA430C91EA030F02BF90EAAC
:10995000020F0020704710F1000F91EA030F58BF6B
:10996000994208BF90422CBFD8176FEAE37040F0CD
:10997000010070474FEA410C7FEA6C5C02D150EA6B
:10998000013C07D14FEA430C7FEA6C5CD6D152EA26
:10999000033CD3D05DF8040B704700BF84461046EB
:1099A00062468C461946634600E000BF01B5FFF7EA
:1099B000B7FF002848BF10F1000F01BD4DF808EDBA
:1099C000FFF7F4FF0CBF012000205DF808FB00BF8B
:1099D0004DF808EDFFF7EAFF34BF012000205DF8E5
:1099E00008FB00BF4DF808EDFFF7E0FF94BF012032
:1099F00000205DF808FB00BF4DF808EDFFF7CEFF33
:109A000094BF012000205DF808FB00BF4DF808ED71
:109A1000FFF7C4FF34BF012000205DF808FB00BF42
:109A20004FEA410C7FEA6C5C02D150EA013C0AD15A
:109A30004FEA430C7FEA6C5C02D152EA033C02D14C
:109A40004FF0000070474FF0010070474A0011D2FC
:109A500012F5001211D20DD56FF47873B3EB625288
:109A60000ED44FEAC12343F0004343EA505323FA94
:109A700002F070474FF00000704750EA013002D109
:109A80004FF0FF3070474FF0000070474FEA41023F
:109A9000B2F1E04324BFB3F5001CDCF1FE5C0DD94C
:109AA00001F0004C4FEAC0024CEA5070B2F1004F96
:109AB00040EB830008BF20F00100704711F0804F99
:109AC00021D113F13872BCBF01F00040704741F45E
:109AD00080114FEA5252C2F11802C2F1200C10FA62
