:02000002D0002C
:1040000000400D00C86E0D00000006000C00050108
:084010000401E80500000000B6
:04401800306A0D00FD
:10401C0009480A49884208B505D0094A824202D0AB
:10402C00121A02F0BBFC0748074A0021121A02F0D0
:10403C00C0FC014808BD00BF08E30320346E0D002E
:10404C0074E3032074E30320F0E7032070B501F060
:10405C00C1F8074C074BE41AA40800251E46A542DC
:10406C0004D056F8253098470135F8E770BD00BFED
:10407C002C6E0D00EC6D0D0000F072B808B500F060
:10408C002BF9BDE8084001F067B800F041BE00F024
:10409C003FBE0078B0FA80F04009704701230370EE
:1040AC00704710B50446006808B100F031FE204698
:1040BC0010BD0368C9B29B68184708B501F0E6FC4F
:1040CC0001F06EFA01F0E2FC682101F0A4FA01F0B3
:1040DC00DDFC6B21FFF7EDFF01F0D8FC0021FFF7B1
:1040EC00E8FF01F0D3FC0121BDE8084001F096BACD
:1040FC00022810B5194B08D003280BD001280ED17B
:10410C004FF08C421A6008240DE04FF08B421A607D
:10411C00102408E04FF08A421A60182403E04FF094
:10412C008D421A60002401F0B1FC01F039FA01F063
:10413C00ADFC682101F06FFA01F0A8FC1C21FFF71F
:10414C00B8FF01F0A3FC2146FFF7B3FF01F09EFC82
:10415C000121BDE8104001F061BA00BF78E30320F3
:10416C0008B501F037F94FF4165101F027F9012188
:10417C000B2001F033FC054800F0A6FBFFF79DFF78
:10418C000320BDE80840FFF7B3BF00BF7CE303206A
:10419C002DE9F0472DED028B01F078FC682101F040
:1041AC003AFA01F073FC3B21FFF783FF01F06EFC40
:1041BC00002101F033FA01F069FC06226821012389
:1041CC0001F010FA01F062FC03685B699847044641
:1041DC0001F05CFC03685B69984740EA042006B276
:1041EC0001F054FC03685B699847044601F04EFCEF
:1041FC0003685B69984740EA042005B201F046FC6D
:10420C0003685B699847824601F040FC03685B6970
:10421C009847304B07EE906A93ED008AF8EEE77AF8
:10422C00044687EE887A44EA0A2424B2F1EE477AEF
:10423C0017EE900A02F050F807EE905AF8EEE77A73
:10424C00064687EE887A0F46F1EE477A17EE900A0B
:10425C0002F042F807EE904AF8EEE77A804687EED5
:10426C00887A8946F1EE477A17EE900A02F034F814
:10427C00424604460D464B464046494602F080F8FD
:10428C0032463B46804689463046394602F078F83D
:10429C0002460B464046494601F0C0FE2246064601
:1042AC000F462B462046294602F06AF802460B467A
:1042BC003046394601F0B2FE41EC100B01F076FDB0
:1042CC0051EC100B02F00CFBBDEC028B00EE100A53
:1042DC00BDE8F08778E3032037B5FFF759FFF3EE1D
:1042EC000B7A0B4CB4EEE70AF1EE10FA84ED000AEF
:1042FC000CDD01F06FF80546206801F0EDFF054A72
:10430C00CDE900010121284600F09BFE03B030BD31
:10431C00CCE30320976A0D0010B50C4C00F0FCFAAE
:10432C0000232360A380A371238102204FF6FF7327
:10433C00638100F069FC2046054A064901F0CCFB7C
:10434C000548BDE8104000F035B800BFC0E30320BD
:10435C0074E30320AF400D007CE303207FB50246DD
:10436C0008461379956833B13DB90C4904B0BDE8E2
:10437C00704000F033BE0A4B00E00A4B167B0A4C2F
:10438C000A49527B0292012E08BF214601910095E9
:10439C00074A002100F055FE04B070BDC96A0D003B
:1043AC00826A0D00B86A0D00C16A0D00C56A0D0065
:1043BC00DF6A0D00FF22027442748274C27470476B
:1043CC0038B5094D296811F001040AD12846FFF7C8
:1043DC0060FE30B12146054800F0F6FC2846FFF798
:1043EC005DFE024838BD00BFD0E30320D4E30320B8
:1043FC002DE9F04190F91330013305460F4606D1F3
:10440C00FFF7DEFF3946BDE8F04100F081BD07261D
:10441C0000244FF0010895F91300002180B201F03F
:10442C00EEFA95F9110008FA06F1394080B201F064
:10443C00E6FA95F91300012180B201F0E0FA95F942
:10444C001200640080B2E4B201F0F2FA08B144F058
:10445C00010416F1FF36DED22046BDE8F08108B526
:10446C00FFF7AEFFBDE8084000F0C9BC10B504462C
:10447C00FFF7A6FF2146BDE8104000F0D9BC0000B4
:10448C0030B590F91030013385B004460D461DD17E
:10449C000179006801F0BBF82068036829469B6825
:1044AC009847206801F0BEF802222179206801F0BB
:1044BC00ABF8206803685B69984705462068036879
:1044CC005B69984740EA052085B235E090F91330D6
:1044DC0001330ED11A4B1B4A009302920023012286
:1044EC0068468DF804308DF80C208DF80D30FFF7F0
:1044FC00BDFF94F91000002180B201F080FA45F064
:10450C0080012046FFF774FF00212046FFF770FF63
:10451C00002105462046FFF76BFF40EA052085B2D7
:10452C0094F91000012180B201F069FA94F913306A
:10453C00013301D1FFF793FF284605B030BD00BF12
:10454C00B46A0D0020A1070008B5FFF799FF40BA27
:10455C0080B208BD30B590F91030013385B00446F7
:10456C000D4616D10179006801F051F820680368F6
:10457C0029469B689847206801F054F8012221795C
:10458C00206801F041F8206803685B699847C5B260
:10459C002EE090F9133001330ED1174B174A0093CC
:1045AC0002920023012268468DF804308DF80C200D
:1045BC008DF80D30FFF75AFF94F91000002180B2EE
:1045CC0001F01DFA45F080012046FFF711FF002194
:1045DC002046FFF70DFF054694F91000012180B22B
:1045EC0001F00DFA94F91330013301D1FFF737FFC5
:1045FC00284605B030BD00BFB46A0D0020A10700ED
:10460C0008B5F321FFF7A6FF00F0010008BD38B58F
:10461C0088210446FFF798FF8A21A0822046FFF7E5
:10462C0093FF8C21E0822046FFF78EFF8E212083A2
:10463C002046FFF789FF902160832046FFF784FF17
:10464C009221A0832046FFF77FFF9421E083204630
:10465C00FFF77AFF962120842046FFF775FF9821FB
:10466C0060842046FFF770FF9A21A0842046FFF754
:10467C006BFF9C21E0842046FFF766FF9E2120857E
:10468C002046FFF761FFA12160852046FFF762FFFE
:10469C00E12184F82C002046FFF756FFE321E0854A
:1046AC002046FFF757FFE42184F830002046FFF73F
:1046BC0051FFE52105462046FFF74CFF00F00F00A7
:1046CC0040EA05106086E6212046FFF743FFE5210E
:1046DC0005462046FFF73EFF001140EA0510A08674
:1046EC00E7212046FFF736FF84F8360038BD00007E
:1046FC007FB590F91030013304460E46154611D1A2
:10470C000179006800F083FF2068036831469B68DC
:10471C0098472068036829469B689847206800F0F2
:10472C0081FF2DE090F9133001330ED1154B164A51
:10473C00009302920023012268468DF804308DF814
:10474C000C208DF80D30FFF791FE94F9100000212C
:10475C0080B201F054F906F07F012046FFF748FEC5
:10476C0029462046FFF744FE94F91000012180B23F
:10477C0001F045F994F91330013301D1FFF76FFEC5
:10478C0004B070BDB46A0D0020A10700F8B590F814
:10479C003C509DF818609DF81CE09DF8207061F36A
:1047AC00871562F3020563F3C50590F8403080F875
:1047BC003C5066F3471380F8403090F838306EF375
:1047CC00C503044667F3020380F8383006F007028D
:1047DC00F221FFF78DFF94F83820C2F3C20302F0E8
:1047EC0007019B0043EA411343EAD2122046F5210C
:1047FC00FFF77EFF94F83C20C2F3C20302F00701DE
:10480C009B0043EA411343EA92122046F421BDE88F
:10481C00F840FFF76DBF30B5044690F91000421C0C
:10482C0085B003D1206800F0BBFE22E0012180B2EC
:10483C0001F0E5F894F91000012180B201F0CEF8F6
:10484C0094F91300431C04D1FFF7BAFD00F0C6FA2B
:10485C000FE0012180B201F0C1F894F9110001219F
:10486C0080B201F0BBF894F91200002180B201F083
:10487C00B5F8D0212046FFF76DFE6028A06020D14E
:10488C002046B622E021FFF733FF4FF4967000F07C
:10489C0025FC2046FFF7B4FE054608B16420F6E778
:1048AC002046FFF7B4FE052300931A460321204649
:1048BC0002950195FFF76AFF642000F00FFC0120C0
:1048CC0000E0002005B030BD772310B5037104461D
:1048DC0001F0DCF820602046FFF79DFF30B976230D
:1048EC0023712046BDE81040FFF795BF10BD00F0C6
:1048FC0013B800F011B8000008B5024B1B689B6898
:10490C00019308BD6802030008B5024B1B68DB6805
:10491C00019308BD6802030008B5024B1B681B68B5
:10492C00019308BD2C02030008B5024B1B689B6861
:10493C00019308BD2C02030008B5024B1B68DB6811
:10494C00019308BD2C02030008B5024B1B681B69C0
:10495C00019308BD2C02030008B5024B1B685B6970
:10496C00019308BD2C02030008B5024B1B681B68A1
:10497C00019308BD3002030008B5024B1B685B694C
:10498C00019308BD3002030008B5024B1B68DB69BC
:10499C00019308BD3002030008B5024B1B681B6A6B
:1049AC00019308BD3002030008B5024B1B685B6A1B
:1049BC00019308BD3002030008B5024B1B68DB6B8A
:1049CC00019308BD3002030008B5024B1B681B6C39
:1049DC00019308BD3002030008B5024B1B685B6CE9
:1049EC00019308BD3002030008B5024B1B685B68DD
:1049FC00019308BD1802030008B5024B1B685B69E4
:104A0C00019308BD1802030008B5024B1B689B6894
:104A1C00019308BD4802030008B5024B1B681B69D3
:104A2C00019308BD4802030008B5024B1B685B6983
:104A3C00019308BD4802030008B5024B1B685B6C70
:104A4C00019308BD4802030008B5024B1B689B6C20
:104A5C00019308BD4802030008B5024B1B685B6953
:104A6C00019308BD6402030008B5024B1B681B6868
:104A7C00019308BD3C02030008B5024B1B68DB68C0
:104A8C00019308BD3C02030008B5024B1B681B696F
:104A9C00019308BD3C02030008B5024B1B685B691F
:104AAC00019308BD3C02030008B5024B1B689B69CF
:104ABC00019308BD3C02030008B5024B1B68DB697F
:104ACC00019308BD3C02030008B5024B1B681B6A2E
:104ADC00019308BD3C02030008B5024B1B689B6A9E
:104AEC00019308BD3C02030008B5024B1B68DB6850
:104AFC00019308BD2802030008B5024B1B689B6993
:104B0C00019308BD2802030008B5024B1B68DB6942
:104B1C00019308BD2802030008B5024B1B681B6AF1
:104B2C00019308BD2802030008B5024B1B685B6AA1
:104B3C00019308BD2802030008B5024B1B689B6A51
:104B4C00019308BD2802030008B5024B1B68DB6A01
:104B5C00019308BD2802030008B5024B1B681B6BB0
:104B6C00019308BD2802030008B5024B1B685B6B60
:104B7C00019308BD2802030008B5024B1B681B6C8F
:104B8C00019308BD2802030008B5024B1B681B6D7E
:104B9C00019308BD2802030008B5024B1B681B6873
:104BAC00019308BD4C02030008B5024B1B685B68FF
:104BBC00019308BD4C02030008B5024B1B681B692E
:104BCC00019308BD4C02030008B5024B1B685B69DE
:104BDC00019308BD4C02030008B5024B1B689B698E
:104BEC00019308BD4C02030008B5024B1B68DB693E
:104BFC00019308BD4C02030008B5024B1B681B6AED
:104C0C00019308BD4C02030008B5024B1B685B689E
:104C1C00019308BD2002030008B5024B1B685B69B9
:104C2C00019308BD2002030008B5034B1B68D3F8A1
:104C3C008830019308BD00002002030008B5034B27
:104C4C001B68D3F89430019308BD000020020300C8
:104C5C0008B5024B1B685B68019308BD400203005A
:104C6C0008B5024B1B689B68019308BD400203000A
:104C7C0008B5024B1B68DB68019308BD40020300BA
:104C8C0008B5024B1B681B69019308BD4002030069
:104C9C0008B5024B1B685B69019308BD4002030019
:104CAC0008B5024B1B689B69019308BD40020300C9
:104CBC0008B5024B1B68DB69019308BD4002030079
:104CCC0008B5024B1B681B6A019308BD4002030028
:104CDC0008B5024B1B681B6B019308BD4002030017
:104CEC0008B5024B1B685B6B019308BD40020300C7
:104CFC0008B5024B1B68DB6B019308BD4402030033
:104D0C0008B5024B1B681B68019308BD1C0203000D
:104D1C0008B5024B1B685B68019308BD1C020300BD
:104D2C0008B5024B1B685B6A019308BD1C020300AB
:104D3C0008B5024B1B68DB6B019308BD1C0203001A
:104D4C00002211464068FFF7BBBF002211464068A5
:104D5C00FFF7C6BF00224068FFF7BABF002281F000
:104D6C0001014068FFF7A4BF00231A4619464068AA
:104D7C00FFF796BF00231A4619464068FFF788BF15
:104D8C00002211464068FFF77BBF002211464068A5
:104D9C00FFF766BF002202214068FFF769BF0023BE
:104DAC001A464068FFF754BF024B03225A60024A6E
:104DBC001A607047DCE30320086B0D000021FFF73D
:104DCC0003BE0021FFF708BE10B50446017008466B
:104DDC00FFF7DAFD00236360204610BD10B50446D2
:104DEC000078FFF7EBFF48B920784FF6FF71FFF71B
:104DFC00BBFD2078BDE81040FFF7E3BF10BD007885
:104E0C00FFF7DFBF400830B51860002418688842EF
:104E1C00E5B206D90134082C02D040081860F5E739
:104E2C000725024B5B5D137030BD00BF346B0D006A
:104E3C002DE9F04307468FB000780E46FFF7BEFF12
:104E4C00002862DB3C781422002109A801F0B1FD96
:104E5C000B232046002209A9ADF82430FFF7A4FD4E
:104E6C009DF82D4054B19DF82C5035B9DDF83080AB
:104E7C009DF834909DF8354003E00024A146A046EF
:104E8C000125337905B1BBB99D420BD1B2684245BE
:104E9C0008D18DF820908DF82140BDF82010B289F2
:104EAC00914209D053B100243878019400942346E0
:104EBC0022460121FFF780FD002026E08DF80F30FF
:104ECC00B1680A9804AB0DF10F02FFF79BFF317923
:104EDC0005B1B1B9A94208D0002438780194747B8B
:104EEC00337B9DF80F200094E4E7B3684345F3D37C
:104EFC008DF820908DF82140BDF82020B3899A427E
:104F0C00EAD1049B4345E7D1D6E70FB0BDE8F08367
:104F1C0008B50078FFF730FDC0B208BD0078FFF788
:104F2C003BBD000010B5094C00204FF6FF7320600C
:104F3C00A080A07120816381FFF766FE2046044AA1
:104F4C000449BDE8104000F0C7BD00BFE4E30320F6
:104F5C0074E30320AF400D0010B50446006808B19F
:104F6C00FFF772FD204610BD10B5064C00232046FD
:104F7C002360FFF761FD2046034A0449BDE8104059
:104F8C0000F0AABDF0E3032074E30320654F0D008D
:104F9C00F8B506460D468F180024BD420CD0336878
:104FAC0015F8011B9B6830469847002801DB044428
:104FBC00F3E7002C08BF04462046F8BD70B5054643
:104FCC000C46084649B101F025FD2B6802462146E6
:104FDC002846DB68BDE87040184770BD08B5FFF780
:104FEC00EDFF08BD03689B68184738B50D210546D1
:104FFC00FFF7F8FF0A2104462846FFF7F3FF204489
:10500C0038BD30B58BB00B4600218DF82410012A29
:10501C0098BF0A220DF12304B3FBF2F505FB123302
:10502C0003F0FF03092B94BF30333733DBB2214637
:10503C0004F801392B46002DEED1FFF7BFFF0BB062
:10504C0030BD0CB42DE9F04387B000AF07F1380444
:10505C00054654F8049B3C600E4623464A461421F0
:10506C00381DFFF75DFE132805D8391D2846FFF7BC
:10507C00A5FF044613E000F1080323F00703E846FC
:10508C00ADEB030D411C23464A4668463C60FFF7D6
:10509C0047FE69462846FFF791FF0446C5461EB1F8
:1050AC002846FFF7A2FF044420461C37BD46BDE846
:1050BC00F04302B070470000014B024A1A6070477F
:1050CC00F4E30320AF6B0D00024B1A68024B1A601D
:1050DC00704700BF08E30320F8E303200021FFF72B
:1050EC009BBD10B58368044613B103220146984753
:1050FC00204610BD10B50446FFF7F3FF204610BD47
:10510C000348044A04490023836000F0E5BC00BF57
:10511C00FCE3032074E3032001510D0008B50C4B94
:10512C0033B100F057F903681B699847002809DC74
:10513C00084B63B100F0D0F903681B69984700284D
:10514C0003DC08BDAFF30080F2E7AFF3008008BDCD
:10515C00000000000000000008B5FFF7DFFFFFF7BC
:10516C004BFC014B186008BD30E703200248034A92
:10517C000349121A01F012BC00F4032004F40320BA
:10518C00306E0D0007B5002300931A466FF07701BF
:10519C00FFF754FD03B05DF804FB000007B543882E
:1051AC000A2B08D0502B09D1094B1B683BB103B01B
:1051BC005DF804EB1847FFF7E5FF06E000230093CA
:1051CC001A466FF07701FFF739FD03B05DF804FB69
:1051DC000CE4032038B5104C104D2368AB42104B37
:1051EC000CBF012200221A7002D0FFF7BFFF25600E
:1051FC00FFF7FAFB044601F0E5FB0A4B13B120461E
:10520C00AFF3008000210748FFF772FD002106482C
:10521C00BDE83840FFF708BD00F403201E1C279A98
:10522C0010E4032000000000A9510D00704710B5D8
:10523C001821044600F05EFC204610BDF0B5037D3D
:10524C00062B8DB00E4600F104074FF0000402D07F
:10525C0000F1080518E00CAD394605F8304D2F2348
:10526C002A460A20FFF7F8FB284601F0D3FB3368E7
:10527C000246DB682946304698470FE024B12E21C0
:10528C003046FFF7AFFE044415F8011D0A223046E4
:10529C00FFF7B7FEBD420444F0D120460DB0F0BD7F
:1052AC0010B5054B0446112240F8043B002101F0D7
:1052BC0080FB204610BD00BF4C6C0D000346074A16
:1052CC0010B543F8042B01F1100251F8044B43F8CC
:1052DC00044B9142F9D10A781A7010BD4C6C0D0038
:1052EC0010B59DF8084044EA032343EA024242EA1F
:1052FC00016104234160037510BD37B50D788B78BF
:10530C004A78C97800912946FFF7EAFF03B030BD0F
:10531C0041747047704708B50021007CFFF75CFCB6
:10532C0030EA200028BF4FF0FF3008BD08B501213E
:10533C00007CFFF751FC30EA200028BF4FF0FF3013
:10534C0008BD08B5007CFFF73FFC20EAE07008BD03
:10535C0008B5007CFFF730FC20EAE07008BD007C4B
:10536C00FFF74ABC10B51421044600F0C3FB2046DD
:10537C0010BD38B50446007C0D46FFF725FC00280F
:10538C0001DC607C28B12946207CFFF72DFC20EA4B
:10539C00E07038BD10B50446002363604FF47A7397
:1053AC00A360054B236001230846217463741146E6
:1053BC00FFF7F2FB204610BD606C0D000022007C54
:1053CC00FFF7F2BB10B514220446002101F0F1FAEC
:1053DC00204610BD30B50E4D87B001A8FFF7F2FF87
:1053EC00296811F0010410D12846FEF752FE60B175
:1053FC0001AA21460748FFF7CDFF2846FEF74EFECF
:10540C00054A0649034800F067FB024807B030BD67
:10541C0014E4032018E4032074E3032021530D004B
:10542C0070474174704708B5007CFFF755FB20EAC4
:10543C00E07008BD08B5007CFFF726FB20EAE070A1
:10544C0008BD08B5007CFFF72FFB30EA200028BF11
:10545C004FF0FF3008BD08B5007CFFF71DFB30EAAC
:10546C00200028BF4FF0FF3008BD007CFFF724BBA5
:10547C0010B51421044600F03DFB204610BD70B55C
:10548C00457C04460E4625B9007CFFF725FB002819
:10549C0005DD3146207CBDE87040FFF7EDBA2846AB
:1054AC0070BD000010B5044608461146002262602B
:1054BC004FF47A72A260054A226001222074627451
:1054CC001A46FFF7D1FA204610BD00BF906C0D00B4
:1054DC00007CFFF7F9BA000038B50C4D296811F0C3
:1054EC00010411D12846FEF7D4FD68B1084A094BD6
:1054FC0009482146FFF7D6FF2846FEF7CFFD074A9D
:10550C000749054800F0E8FA034838BDC4E4032015
:10551C00C8E4032040E403202CE4032074E30320BC
:10552C002D540D007047F8B5064615460C468F18DD
:10553C00BC4206D0336814F8011B9B683046984770
:10554C00F6E72846F8BD0022007CFFF7E5BA0021FB
:10555C00007CFFF7E9BA0021007CFFF7EDBA0021CF
:10556C00007CFFF7F1BA0021007CFFF7F5BA10B50B
:10557C001421044600F0BEFA204610BD10B50446B6
:10558C00002363604FF47A73A360044B21740846C4
:10559C0023601146FFF7F0FA204610BDC06C0D00D9
:1055AC0000231A461946007CFFF79EBA70B50C46CC
:1055BC0086B0142506462A46002101A801F0F9F907
:1055CC0023788DF8083063680393E3680493002212
:1055DC00237A307CADF8045001A90593FFF7D4FA77
:1055EC0006B070BD1FB500338DF800104FF064018C
:1055FC00039118BF0123694601928DF80830FFF71B
:10560C00D5FF05B05DF804FB0123FFF7EBBF0022CB
:10561C00007CFFF771BAC9B2FFF7F9BF0022007C1A
:10562C00FFF772BA0121FFF7F9BF0021007CFFF7E9
:10563C009BBA002211464068FFF742BB002211467C
:10564C004068FFF74DBB00224068FFF741BB0022CA
:10565C0081F001014068FFF72BBB00231A460121A2
:10566C004068FFF71DBB00231A4619464068FFF738
:10567C000FBB002211464068FFF702BB0022114607
:10568C004068FFF7EDBA002202214068FFF7F0BA3C
:10569C0000231A464068FFF7DBBA38B5054688B1D7
:1056AC0004684CB1A3681BB10322214620469847DD
:1056BC001021204600F01EFA28461421BDE838407F
:1056CC0000F018BA38BD10B103685B681847704712
:1056DC0010B503680446BBB15868FFF795F978B963
:1056EC0023685A7C12B95868FFF796F923685868F2
:1056FC00FFF79AF920680023236028B1FFF7CDFF4C
:10570C00206808B1FFF7C9FF204610BD38B5044624
:10571C00D0F8C40108B1FEF7BAFCD4F8C00108B146
:10572C00FFF792F9D4F8BC5135B12846FFF7D0FFFA
:10573C000421284600F0DEF9206808B1FFF7C3FF0A
:10574C00204638BD10B5044B044640F8083BFFF723
:10575C00DDFF204610BD00BFE86C0D0038B50E4CC7
:10576C000E4B23600025022304F5E4706360A560F2
:10577C00C4F8C451C4F8C851FFF75EF9084BC4F81B
:10578C00CC5184F8D05123602046064A0649BDE826
:10579C00384000F0A1B900BF4CE50320506D0D005E
:1057AC00E86C0D0074E3032051570D0000221146E4
:1057BC004068FFF765BA002211464068FFF780BACF
:1057CC00002211464068FFF78BBA00224068FFF7B1
:1057DC007FBA002281F001014068FFF769BA00230B
:1057EC001A4619464068FFF75BBA00231A46194659
:1057FC004068FFF74DBA002211464068FFF730BAF7
:10580C00002202214068FFF733BA00231A46406891
:10581C00FFF71EBA024B04225A60024A1A60704704
:10582C0020E703201C6D0D0000231A464068FFF78B
:10583C000FBA002202214068FFF71ABA0022114663
:10584C004068FFF70DBA002211464068FFF718BAFE
:10585C0000231A4619464068FFF71ABA00231A4665
:10586C0019464068FFF71CBA002281F0010140681C
:10587C00FFF71EBA00224068FFF72ABA0022114631
:10588C004068FFF72DBA002211464068FFF718BA9E
:10589C002DE9F043002495B016460D460746FFF758
:1058AC00FFFC214620220CA8009401F082F8402332
:1058BC000C9321466B460CAA3046FFF725F804469C
:1058CC00002844D1024601216868FFF7D9F902216A
:1058DC00804622466868FFF7D3F9009E8146214630
:1058EC00002E34D0002932D17368022B02D00A2B3F
:1058FC0009D02AE0B8F1000F27D07169384604317D
:10590C00FFF7FBFC20E0B9F1000F1ED074691122E7
:10591C0001A801F04EF806238DF8143001AD04F106
:10592C0008031834186859682A4603C20833A3427E
:10593C001546F7D101A906A807ADFFF7BFFC0FCD9F
:10594C003C1D0FC42B6823700121F669C8E7009831
:10595C00FEF7D2FF384615B0BDE8F083024B034A80
:10596C001A6000225A60704728E70320506D0D0022
:10597C0070B5184E316811F0010504460AD1304655
:10598C00FEF787FB30B129461348FFF71DFA304666
:10599C00FEF784FB1048FFF7C1FA28B1A4F10B0302
:1059AC00022B01D8002070BD00F070F8FFF73DFE0F
:1059BC0008B1012CF6D9FFF78FFDFFF789FD18B15F
:1059CC00A4F10903012BEDD9232C8CBF002001205D
:1059DC0070BD00BFD0E30320D4E30320232838B5E7
:1059EC0004460D460AD8FF2908D0FFF7C1FF28B19D
:1059FC0029462046BDE83840FEF796BF38BD38B57D
:105A0C0004460D46FEF798FFFF2810D0062804D850
:105A1C004D2323FA00F0C30709D42046FFF7A8FF53
:105A2C0028B129462046BDE83840FEF78DBF38BD69
:105A3C0010B50446FEF780FF0438C0B2012808D91F
:105A4C002046FFF795FF20B12046BDE81040FEF739
:105A5C0083BF002010BD000070B5044614252A46F3
:105A6C00094E002100F0A5FF258020253146A560B8
:105A7C002561284600F040F831466060284600F069
:105A8C003BF8E060204670BD7C6D0D0030B50E4DCE
:105A9C00296811F0010487B013D12846FEF7F9FAF2
:105AAC0078B101A8FFF7D8FF01AA21460748FFF7F4
:105ABC0065FD2846FEF7F2FA054A0649034800F050
:105ACC000BF8024807B030BD34E7032038E7032059
:105ADC0074E3032031550D000B460146184600F0C7
:105AEC004FBF0000024B1868BFF35F8F704700BFB9
:105AFC004CE70320FEF7C9BA00F000B810B5002837
:105B0C0014BF044601242046FFF7FAF820B9FFF72A
:105B1C00E9FF08B18047F6E710BD0000184B1A6882
:105B2C00D1075CBF01221A60164B1A68D2075CBF02
:105B3C0001221A60144B1A68D0075CBF01221A604C
:105B4C00124B1A68D1075CBF01221A60104B1A68FD
:105B5C00D2075CBF01221A600E4B1A68D0075CBFDB
:105B6C0001221A600C4B1A68D1075CBF01221A6023
:105B7C000A4B1A68D2075CBF01221A60704700BF3B
:105B8C006CE7032068E7032064E7032060E7032049
:105B9C005CE7032058E7032054E7032050E7032079
:105BAC00244B1A68D0075CBF01221A60224B1A687A
:105BBC00D1075CBF01221A60204B1A68D2075CBF68
:105BCC0001221A601E4B1A68D0075CBF01221A60B2
:105BDC001C4B1A68D1075CBF01221A601A4B1A6859
:105BEC00D2075CBF01221A60184B1A68D0075CBF41
:105BFC0001221A60164B1A68D1075CBF01221A6089
:105C0C00144B1A68D2075CBF01221A60124B1A6837
:105C1C00D0075CBF01221A60104B1A68D1075CBF19
:105C2C0001221A600E4B1A68D2075CBF01221A605F
:105C3C00704700BF9CE7032098E7032094E70320FC
:105C4C0090E703208CE7032088E7032084E70320F8
:105C5C0080E703207CE7032078E7032074E7032028
:105C6C0070E70320244B1A68D0075CBF01221A602E
:105C7C00224B1A68D1075CBF01221A60204B1A68AC
:105C8C00D2075CBF01221A601E4B1A68D0075CBF9A
:105C9C0001221A601C4B1A68D1075CBF01221A60E2
:105CAC001A4B1A68D2075CBF01221A60184B1A688B
:105CBC00D0075CBF01221A60164B1A68D1075CBF73
:105CCC0001221A60144B1A68D2075CBF01221A60B9
:105CDC00124B1A68D0075CBF01221A60104B1A686D
:105CEC00D1075CBF01221A600E4B1A68D2075CBF49
:105CFC0001221A60704700BFCCE70320C8E70320DD
:105D0C00C4E70320C0E70320BCE70320B8E7032067
:105D1C00B4E70320B0E70320ACE70320A8E7032097
:105D2C00A4E70320A0E70320184B1A68D1075CBF37
:105D3C0001221A60164B1A68D2075CBF01221A6046
:105D4C00144B1A68D0075CBF01221A60124B1A68F8
:105D5C00D1075CBF01221A60104B1A68D2075CBFD6
:105D6C0001221A600E4B1A68D0075CBF01221A6020
:105D7C000C4B1A68D1075CBF01221A600A4B1A68D7
:105D8C00D2075CBF01221A60704700BFECE703200A
:105D9C00E8E70320E4E70320E0E70320DCE7032047
:105DAC00D8E70320D4E70320D0E703202DE9F04304
:105DBC002DED028B8BB055EC104B00F057F8294BA6
:105DCC00B0EE408AF0EE608A93F90060731C12D03A
:105DDC0022462B462046294600F06CFD074650B95A
:105DEC004FF000084FF000092046294642464B462A
:105DFC0000F038FD40B9B0EE480AF0EE680A0BB07E
:105E0C00BDEC028BBDE8F083174B08970122CDE95E
:105E1C000445CDE902458DE80C00B6B142464B462F
:105E2C004046494600F0D6FB022ECDE906010ED1C4
:105E3C00FEF77EFF21230360089B73B99DED060BD3
:105E4C000BB0BDEC028BBDE8F083CDE9068968464A
:105E5C0000F0DCF80028EFD1EAE7FEF769FF089BB9
:105E6C000360EBE70CE30320806D0D002DE9F0419E
:105E7C00654955EC104B0E462940B14200F0978015
:105E8C00002D2B4610EE102A74DD2F157FD0A7F2B3
:105E9C00FF37C3F31303F90743F4801365D403EB03
:105EAC00D27100260B447F105200B64616204FF4D8
:105EBC0000110EEB01049C424FEAD2754FEA4202EC
:105ECC0003DC1B1B04EB010E0E44013805EB4303F2
:105EDC004FEA5101EDD1844620244FF0004109E0F6
:105EEC0020D003EBD275013C4FEA51012B444FEA11
:105EFC00420220D09E4501EB0C05F1DA002D05EB9A
:105F0C00010C09DBF0469542CEEB030300D9013BB3
:105F1C00521B0844C646E4E7BCF1000FF2DB0EF15D
:105F2C000108F0E795421ED8002D05EB010C50DB63
:105F3C0098460023ECE7134304D0421C4DD000F0EC
:105F4C000103184440087110F30701F17F5101F56A
:105F5C00001148BF40F0004001EB0753024643ECF0
:105F6C00102BBDE8F0817346BBE75B0003EBD273EB
:105F7C00520094E725F00041214328D0ADBB2F46B9
:105F8C00D30A153F5205002BFAD0DD0228D400218C
:105F9C0000E001465B00DC0201F10100F9D5C0F123
:105FAC00200422FA04F423437F1A82406FE710EE98
:105FBC00102A2B4610EE100A294600F0E1F9224671
:105FCC002B4600F02BF841EC100BBDE8F081BDE83E
:105FDC00F081BCF1000FA2DAAAE701362046B2E745
:105FEC0020244FF0FF310020DBE710EE102A2B4667
:105FFC002046294600F010F802460B4600F0EAFA5B
:10600C0041EC100BBDE8F0810000F07F00207047E0
:10601C0081F0004102E000BF83F0004330B54FEA4D
:10602C0041044FEA430594EA050F08BF90EA020FBA
:10603C001FBF54EA000C55EA020C7FEA645C7FEA4D
:10604C00655C00F0E2804FEA5454D4EB5555B8BF70
:10605C006D420CDD2C4480EA020281EA030382EAE1
:10606C00000083EA010180EA020281EA0303362D73
:10607C0088BF30BD11F0004F4FEA01314FF4801C46
:10608C004CEA113102D0404261EB410113F0004F58
:10609C004FEA03334CEA133302D0524263EB43030F
:1060AC0094EA050F00F0A780A4F10104D5F1200EAD
:1060BC000DDB02FA0EFC22FA05F2801841F1000108
:1060CC0003FA0EF2801843FA05F359410EE0A5F1DC
:1060DC0020050EF1200E012A03FA0EFC28BF4CF00D
:1060EC00020C43FA05F3C01851EBE37101F00045C3
:1060FC0007D54FF0000EDCF1000C7EEB00006EEBD0
:10610C000101B1F5801F1BD3B1F5001F0CD3490859
:10611C005FEA30004FEA3C0C04F101044FEA4452B0
:10612C0012F5800F80F09A80BCF1004F08BF5FEA37
:10613C00500C50F1000041EB045141EA050130BD17
:10614C005FEA4C0C404141EB010111F4801FA4F1BA
:10615C000104E9D191F0000F04BF01460020B1FA0F
:10616C0081F308BF2033A3F10B03B3F120020CDA47
:10617C000C3208DD02F1140CC2F10C0201FA0CF025
:10618C0021FA02F10CE002F11402D8BFC2F1200C8A
:10619C0001FA02F120FA0CFCDCBF41EA0C01904040
:1061AC00E41AA2BF01EB0451294330BD6FEA040489
:1061BC001F3C1CDA0C340EDC04F11404C4F1200274
:1061CC0020FA04F001FA02F340EA030021FA04F386
:1061DC0045EA030130BDC4F10C04C4F1200220FADD
:1061EC0002F001FA04F340EA0300294630BD21FA1B
:1061FC0004F0294630BD94F0000F83F4801306BFE1
:10620C0081F480110134013D4EE77FEA645C18BFD4
:10621C007FEA655C29D094EA050F08BF90EA020F6B
:10622C0005D054EA000C04BF1946104630BD91EA63
:10623C00030F1EBF0021002030BD5FEA545C05D166
:10624C004000494128BF41F0004130BD14F58004A5
:10625C003CBF01F5801130BD01F0004545F0FE4119
:10626C0041F470014FF0000030BD7FEA645C1ABF4E
:10627C00194610467FEA655C1CBF0B46024650EA85
:10628C00013406BF52EA033591EA030F41F40021B1
:10629C0030BD00BF90F0000F04BF0021704730B537
:1062AC004FF4806404F132044FF000054FF000010C
:1062BC0050E700BF90F0000F04BF0021704730B5CD
:1062CC004FF4806404F1320410F0004548BF4042A2
:1062DC004FF000013EE700BF42004FEAE2014FEAF7
:1062EC0031014FEA02701FBF12F07F4393F07F4FD2
:1062FC0081F06051704792F0000F14BF93F07F4F04
:10630C00704730B54FF4607401F0004521F0004146
:10631C0020E700BF50EA010208BF704730B54FF0CC
:10632C0000050AE050EA010208BF704730B511F0D1
:10633C00004502D5404261EB41014FF4806404F109
:10634C0032045FEA915C3FF4DCAE4FF003025FEA8B
:10635C00DC0C18BF03325FEADC0C18BF033202EB13
:10636C00DC02C2F1200300FA03FC20FA02F001FA6D
:10637C0003FE40EA0E0021FA02F11444C1E600BF0C
:10638C0070B54FF0FF0C4CF4E06C1CEA11541DBFBF
:10639C001CEA135594EA0C0F95EA0C0F00F0DEF88A
:1063AC002C4481EA030621EA4C5123EA4C5350EA6F
:1063BC00013518BF52EA033541F4801143F48013C0
:1063CC0038D0A0FB02CE4FF00005E1FB02E506F051
:1063DC000042E0FB03E54FF00006E1FB03569CF0A6
:1063EC00000F18BF4EF0010EA4F1FF04B6F5007FAC
:1063FC0064F5407404D25FEA4E0E6D4146EB06061E
:10640C0042EAC62141EA55514FEAC52040EA5E50A6
:10641C004FEACE2EB4F1FD0C88BFBCF5E06F1ED850
:10642C00BEF1004F08BF5FEA500E50F1000041EB87
:10643C00045170BD06F0004646EA010140EA020034
:10644C0081EA0301B4EB5C04C2BFD4EB0C0541EA56
:10645C00045170BD41F480114FF0000E013C00F36B
:10646C00AB8014F1360FDEBF002001F0004170BD8F
:10647C00C4F10004203C35DA0C341BDC04F11404A8
:10648C00C4F1200500FA05F320FA04F001FA05F234
:10649C0040EA020001F0004221F0004110EBD37001
:1064AC0021FA04F642EB06015EEA430E08BF20EA2D
:1064BC00D37070BDC4F10C04C4F1200500FA04F3D0
:1064CC0020FA05F001FA04F240EA020001F0004162
:1064DC0010EBD37041F100015EEA430E08BF20EAD5
:1064EC00D37070BDC4F1200500FA05F24EEA020E1D
:1064FC0020FA04F301FA05F243EA020321FA04F04C
:10650C0001F0004121FA04F220EA020000EBD37002
:10651C005EEA430E08BF20EAD37070BD94F0000F02
:10652C000FD101F00046400041EB010111F4801F36
:10653C0008BF013CF7D041EA060195F0000F18BFE7
:10654C00704703F00046520043EB030313F4801F23
:10655C0008BF013DF7D043EA0603704794EA0C0FDD
:10656C000CEA135518BF95EA0C0F0CD050EA4106F3
:10657C0018BF52EA4306D1D181EA030101F0004170
:10658C004FF0000070BD50EA410606BF1046194698
:10659C0052EA430619D094EA0C0F02D150EA0136A4
:1065AC0013D195EA0C0F05D152EA03361CBF1046E5
:1065BC0019460AD181EA030101F0004141F0FE4184
:1065CC0041F470014FF0000070BD41F0FE4141F408
:1065DC00780170BD70B54FF0FF0C4CF4E06C1CEA08
:1065EC0011541DBF1CEA135594EA0C0F95EA0C0FBD
:1065FC0000F0A7F8A4EB050481EA030E52EA033578
:10660C004FEA013100F088804FEA03334FF0805598
:10661C0045EA131343EA12634FEA022245EA1115C5
:10662C0045EA10654FEA00260EF000419D4208BF76
:10663C00964244F1FD0404F5407402D25B084FEA23
:10664C003202B61A65EB03055B084FEA32024FF4CF
:10665C0080104FF4002CB6EB020E75EB030E22BF2C
:10666C00B61A754640EA0C005B084FEA3202B6EBEC
:10667C00020E75EB030E22BFB61A754640EA5C009B
:10668C005B084FEA3202B6EB020E75EB030E22BF2B
:10669C00B61A754640EA9C005B084FEA3202B6EB2C
:1066AC00020E75EB030E22BFB61A754640EADC00EB
:1066BC0055EA060E18D04FEA051545EA16754FEA4D
:1066CC0006164FEAC30343EA52734FEAC2025FEA6B
:1066DC001C1CC0D111F4801F0BD141EA00014FF0FA
:1066EC0000004FF0004CB6E711F4801F04BF0143CB
:1066FC000020B4F1FD0C88BFBCF5E06F3FF6AFAEE7
:10670C00B5EB030C04BFB6EB020C5FEA500C50F176
:10671C00000041EB045170BD0EF0004E4EEA1131F9
:10672C0014EB5C04C2BFD4EB0C0541EA045170BD00
:10673C0041F480114FF0000E013C90E645EA060E44
:10674C008DE60CEA135594EA0C0F08BF95EA0C0F72
:10675C003FF43BAF94EA0C0F0AD150EA01347FF4BA
:10676C0034AF95EA0C0F7FF425AF104619462CE791
:10677C0095EA0C0F06D152EA03353FF4FDAE1046F4
:10678C00194622E750EA410618BF52EA43067FF445
:10679C00C5AE50EA41047FF40DAF52EA43057FF4D5
:1067AC00EBAE12E74FF0FF3C06E000BF4FF0010CE0
:1067BC0002E000BF4FF0010C4DF804CD4FEA410C44
:1067CC007FEA6C5C4FEA430C18BF7FEA6C5C1BD011
:1067DC0001B050EA410C0CBF52EA430C91EA030F92
:1067EC0002BF90EA020F0020704710F1000F91EAEF
:1067FC00030F58BF994208BF90422CBFD8176FEABD
:10680C00E37040F0010070474FEA410C7FEA6C5C8A
:10681C0002D150EA013C07D14FEA430C7FEA6C5C91
:10682C00D6D152EA033CD3D05DF8040B704700BFBD
:10683C008446104662468C461946634600E000BF0B
:10684C0001B5FFF7B7FF002848BF10F1000F01BDDD
:10685C004DF808EDFFF7F4FF0CBF012000205DF8A8
:10686C0008FB00BF4DF808EDFFF7EAFF34BF01202D
:10687C0000205DF808FB00BF4DF808EDFFF7E0FFC6
:10688C0094BF012000205DF808FB00BF4DF808ED17
:10689C00FFF7CEFF94BF012000205DF808FB00BF7E
:1068AC004DF808EDFFF7C4FF34BF012000205DF860
:1068BC0008FB00BF4FEA410C7FEA6C5C02D150EA46
:1068CC00013C0AD14FEA430C7FEA6C5C02D152EADC
:1068DC00033C02D14FF0000070474FF001007047AD
:1068EC004FEA4102B2F1E04324BFB3F5001CDCF1E6
:1068FC00FE5C0DD901F0004C4FEAC0024CEA50701E
:10690C00B2F1004F40EB830008BF20F0010070474C
:10691C0011F0804F21D113F13872BCBF01F000404F
:10692C00704741F480114FEA5252C2F11802C2F181
:10693C00200C10FA0CF320FA02F018BF40F0010002
:10694C004FEAC1234FEAD32303FA0CFC40EA0C00B4
:10695C0023FA02F34FEA4303CCE77FEA625307D1F1
:10696C0050EA01331EBF4FF0FE4040F44000704728
:10697C0001F0004040F0FE4040F40000704700BFC2
:10698C0010B5054C13462CB10A4601460220AFF354
:10699C00008010BD204610BD0000000010B5431E45
:1069AC000A44914204D011F8014B03F8014FF8E767
:1069BC0010BD02440346934202D003F8011BFAE7D0
:1069CC007047000038B5124B1C68A36B0546D3B951
:1069DC001820FEF795F943F20E33A06303804AF6B4
:1069EC00CD33438041F2342383804EF26D63C380F8
:1069FC004DF6EC630381052343810B238381012234
:106A0C000023C0E90423A36B00221D615A6138BD29
:106A1C0070E30320034613F8012B002AFBD1181A4C
:106A2C00013870471D400D0059400D0085400D0088
:106A3C0089400D0000000000416C74697475646538
:106A4C003A2025302E3266206D0900507265737322
:106A5C007572653A2025302E326620685061090027
:106A6C0054656D70657261747572653A2025302EAF
:106A7C003266202A46090048756D69646974793A52
:106A8C002025302E326625250A0A00416363656C89
:106A9C0065726174696F6E3A2025302E3266000083
:106AAC00000000000000000069430D006465666191
:106ABC00756C7420004D5342004C5342003C5350B3
:106ACC004953657474696E67732064656661756C8F
:106ADC00743E003C53504953657474696E6773205F
:106AEC002573256C75202573204D4F444525643E38
:106AFC00000000000000000000000000AB4D0D0085
:106B0C00A14D0D00974D0D008D4D0D00814D0D00CB
:106B1C00754D0D00694D0D00614D0D00574D0D006B
:106B2C004D4D0D009D580D000008101820283038D0
:106B3C00626175640053657269616C0053657269BA
:106B4C00616C31007479706500706172616D006305
:106B5C006D6400696400686E64007374726D006625
:106B6C00696C74006C766C0061646448616E646C72
:106B7C0065720072656D6F766548616E646C6572E6
:106B8C0000656E756D48616E646C657273004A5376
:106B9C004F4E53747265616D4C6F6748616E646CD7
:106BAC0065720061707000253031307520005D20F9
:106BBC00002564002C200028293A2000205B00636B
:106BCC006F6465203D200025690064657461696C03
:106BDC0073203D20000D0A006C6E00666E00636F22
:106BEC0064650064657461696C006E6F6E65007439
:106BFC007261636500696E666F007761726E006525
:106C0C0072726F720070616E696300616C6C005A15
:106C1C0000252B3033643A253032750025592D254B
:106C2C006D2D25645425483A254D3A2553257A0077
:106C3C0061736374696D6500000000000000000062
:106C4C0049520D0039520D003B520D00000000005E
:106C5C000000000021530D0071530D007F530D00F7
:106C6C009D4F0D005D530D0023530D0039530D0046
:106C7C006B530D004F530D001D530D000000000011
:106C8C00000000002D540D007D540D008B540D00A0
:106C9C009D4F0D0041540D0063540D004F540D00D9
:106CAC0077540D002F540D0033540D0000000000DC
:106CBC000000000031550D007B550D0053550D00A3
:106CCC0033550D005B550D0063550D006B550D00D4
:106CDC0073550D0000000000000000009D560D00D3
:106CEC0093560D0089560D007F560D0073560D00FE
:106CFC0067560D005B560D0053560D0049560D009E
:106D0C003F560D009D580D000000000000000000D3
:106D1C0017580D000D580D0003580D00B9570D00F4
:106D2C00F7570D00EB570D00DF570D00D7570D002F
:106D3C00CD570D00C3570D009D580D0000000000ED
:106D4C000000000035580D003F580D0049580D004B
:106D5C0053580D005D580D0069580D0075580D0005
:106D6C0081580D0089580D0093580D009D580D0049
:106D7C00000000007371727400000000000000003D
:106D8C0000000000000000000000000000000000F7
:106D9C0000000000000000000000000000000000E7
:106DAC0000000000000000000000000000000000D7
:106DBC0000000000000000000000000000000000C7
:106DCC0000000000000000000000000000000000B7
:106DDC000000000000000000000000004300000064
:106DEC0025430D00FB480D00FF480D00B54D0D006F
:106DFC00314F0D00754F0D00C5500D00D5500D00D5
:106E0C000D510D0069570D0021580D0069590D00E9
:106E1C00295B0D00AD5B0D00715C0D00355D0D0047
:046E2C000000000062
:046E3000000000005E
:106E34003C6C0D000100000000000000886D0D0096
:106E4400A86D0D00C86D0D000000000000000000DA
:106E54000000000000000000E86D0D0000000000CC
:106E6400000000000000000000000000000000001E
:106E7400000000000000000000000000000000000E
:106E840000000000000000000000000000000000FE
:0C6E9400000000000000000010E30320DC
:106EA000FFFFFFFF00000102030405060708090AAF
:106EB0000B0C0D0E0F101112131415161718191AAA
:086EC0001B1C1D1E1F202800F1
:046EC80078563412B2
:04000003D000401CCD
:00000001FF
